:020000040800F2
:10000000980A002045020008AD220008A522000839
:10001000A922000865200008C32A0008000000008B
:10002000000000000000000000000000C9240008DB
:1000300069200008000000003D2300082126000878
:100040005F0200085F0200085F0200085F0200080C
:100050005F0200085F0200085F0200085F020008FC
:100060005F0200085F0200085F0200085F020008EC
:100070005F0200085F0200085F0200085F020008DC
:100080005F0200085F0200085F0200085F020008CC
:100090005F0200085F0200085F020008ED20000810
:1000A0005F0200085F0200085F0200085F020008AC
:1000B0005F0200085F0200085F0200085F0200089C
:1000C0005F0200085F0200085F0200085F0200088C
:1000D0005F020008092900085F0200085F020008AB
:1000E0006D2000085F0200085F0200085F02000840
:1000F0005F0200085F0200085F0200085F0200085C
:100100005F0200085F0200085F0200085F0200084B
:100110005F0200085F0200085F0200085F0200083B
:100120005F0200085F0200085F0200085F0200082B
:100130005F0200085F0200085F0200085F0200081B
:100140005F0200085F0200085F0200085F0200080B
:100150005F0200085F0200085F0200085F020008FB
:100160005F0200085F0200085F0200085F020008EB
:100170005F0200085F0200085F0200085F020008DB
:100180005F0200085F02000800F002F800F04AF881
:100190000AA090E8000C82448344AAF10107DA45E2
:1001A00001D100F03FF8AFF2090EBAE80F0013F0EA
:1001B000010F18BFFB1A43F001031847D440000099
:1001C000F4400000103A24BF78C878C1FAD852072A
:1001D00024BF30C830C144BF04680C6070470000C1
:1001E0000023002400250026103A28BF78C1FBD840
:1001F000520728BF30C148BF0B607047662903F023
:100200006087642900F07480002070471FB500F0FB
:10021000E1FB04000020002103F01EF8E0601FBD98
:1002200010B510BD00F0F2FC1146FFF7EFFF02F031
:10023000FBFE00F010FD03B4FFF7F2FF03BC02F079
:10024000C3FC00000948804709480047FEE7FEE775
:10025000FEE7FEE7FEE7FEE7FEE7FEE7FEE7FEE776
:1002600004480549054A064B70470000252600084A
:100270008901000898040020980A002098060020B0
:1002800098060020704700000FB4044910B503AA77
:10029000029800F08DFB10BC5DF814FB00000020FC
:1002A00070B5044685690068C10601D5302600E0B6
:1002B0002026C00707D070BDD4E901213046904701
:1002C000206A401C20626D1EF6D570BD70B50446D4
:1002D00085690078C00707D170BDD4E901212020CD
:1002E0009047206A401C20626D1EF6D570BD00004C
:1002F0002DE9F0410646002410687529314616A5FF
:1003000010D0AFF30080002802DA404213A507E0C6
:1003100031688A0701D512A502E0490704D511A565
:10032000012401E0AFF3008000210A2206F1240736
:1003300009E0B0FBF2FCB0FBF2F302FB1C00303032
:1003400078541846491C0028F3D123462A463046E3
:10035000BDE8F04100F0C5B8000000002D0000002D
:100360002B000000200000002DE9F0474FF0000AAC
:1003700089460446C0F820A02046E1688847002846
:1003800076D0252806D0D4E901219047206A401C68
:100390002062F1E7E168204600258847C4F81CA0E8
:1003A00006460027C4F818A02A2E09D0304602F0CD
:1003B00004FC38B304EB8708303EC8F8186019E035
:1003C00059F8041B204604EB87029161E1688847D5
:1003D000012F064618D1E069002820DA25F0200513
:1003E0001DE0D8F8180000EB800006EB4000303824
:1003F000C8F818002046E1688847064602F0DDFB91
:100400000028EED1012F0AD02E2E08D12046E16817
:1004100088477F1C0646022F45F02005C4DBA069F3
:10042000002803DA404245F00105A061E80701D049
:1004300025F01005B6B1A6F14100192802D82036E2
:1004400045F400654A463146204625604D46FFF793
:10045000D5FE58B1012806D0ED1D25F0070000F1AA
:10046000080989E704E005F1040985E730468AE7D1
:10047000206ABDE8F0874FF0000200B513469446AD
:100480009646203922BFA0E80C50A0E80C50B1F1EC
:100490002001BFF4F7AF090728BFA0E80C5048BF00
:1004A0000CC05DF804EB890028BF40F8042B08BF9E
:1004B000704748BF20F8022B11F0804F18BF00F89A
:1004C000012B7047704770477047704710B500F0B8
:1004D00085FA006810BD10B5044600F07FFA04608C
:1004E00010BD2DE9F0470D4699469246044600F1AD
:1004F00024080168880604D5E06921F01001216014
:1005000000E00120A84201DD471B00E00027A169AF
:100510007A1902EB0900081AA0612078C00602D4FB
:100520002046FFF7BDFE002608E0D4E901211AF8B5
:1005300006009047206A401C761C20624E45F4DB82
:100540002078C0060AD52046FFF7AAFE06E0D4E9C7
:10055000012130209047206A401C2062381EA7F1FC
:100560000107F4DC07E0D4E9012118F80500904701
:10057000206A401C2062281EA5F10105F3DC2046FC
:10058000FFF7A4FE2078000602D50220BDE8F08720
:100590000120FBE770472DE9FF4F0C461E464FF048
:1005A000FF378BB0D2E90001DDF860800A908A46FF
:1005B000C1F30A5505B93D46002108464FF0000039
:1005C000BAF1000F00F4400005DA00EB80004FF4B0
:1005D000400101EA50004FEA9059B9F1010F00DDE6
:1005E000B9460A9850EA4A000ED044F61050A5F2D7
:1005F000FF3545432F14B8F1000F1ED07542291E58
:100600001EDDC9F100021CE0B8F1010F4FF000003F
:1006100001D0302103E0F24305E02154401CB042F8
:10062000FBDB30460022002121540B99C1F80880E1
:10063000C1E900200FB0BDE8F08FBD1B6D1CDEE7E7
:100640004A4600DA694206A800F06AFA06AB93E867
:10065000070003AB83E8070050460A9900F044FB0B
:100660008DE80700A0F500501F3800900398002D7A
:1006700009DD42F21F014A46084403A90390684677
:1006800000F0A3FD08E0A0F500504A461F3803A97A
:100690000390684600F0ADFD8DE807000004000CF3
:1006A00003D04FF0FF30410800E01046B8F1000FD2
:1006B00003D00022009215461EE0751E05D400F0FE
:1006C00091F9303262556D1EF9D5B34601220843C7
:1006D00002D000227F1C04E02078302801D10022C3
:1006E0007F1E002A099786D01DE0112D07DA00F041
:1006F00079F9303262556D1C50EA0102F5D1084398
:1007000002D00098C8B10EE00021681E05E0235C0D
:10071000625C63542254401E491C8142F7DBAB46A5
:10072000A81B401E0990002004F80B000B98099AA2
:10073000C0F80880C0E9002B7CE711264FF00008C4
:1007400059E72DE9F04F88460446D21D22F00701F3
:1007500091B0D1E90001CDE90A0102F0B4F90246F5
:100760000B98C00F01D02D2007E02068810701D52C
:100770002B2002E0202101EAC000032A099001D0C9
:10078000072A05DB03464146204600F089F90BE1C4
:100790002078800601D5E06900E00620B8F1650FF9
:1007A000814606D0B8F1660F18D0B8F1670F70D146
:1007B00031E00020B9F1110F009001DB112301E0BD
:1007C00009F101030AAA01A90CA8FFF7E4FEDDE97B
:1007D0000C70002609F10105834647E001204B46D5
:1007E00000904FF000470AAA01A90CA8FFF7D3FE1A
:1007F000DDE90DB00C995D46002610B909F1010044
:100800000D18B9EB050003D4C0F1FF3609F101055D
:10081000A5EB09002BE0B9F1010F01DA4FF0010956
:100820000020B9F1110F0090484601DD112300E0CE
:1008300003460AAA01A90CA8FFF7ADFEDDE90C707A
:100840004D4600268346207800070AD4AB4500DADF
:100850005D4601A8012D04DD411911F8011C302964
:1008600007D04F4502DA17F1040F04DA012082465F
:100870000FE06D1EEEE7002F02DCED1B3E4403E0AF
:10088000781CA84200DD7D1CB81B00F1010A4FF066
:1008900000472078000703D4AA4501DB4FF0FF3A58
:1008A0000021B7F1004F0DF143088DF8431024D01B
:1008B00002202B23002F01DA7F422D230A21021E62
:1008C000A0F1010000DC5FB197FBF1FC97FBF1F2B6
:1008D00001FB1C7C17460CF1300C08F801CDEEE74B
:1008E000A8F1010003702188090501D5452100E028
:1008F0006521A0F1010800F8011C09980FA9A1EBDE
:100900000807FF1D00B10120411901EBEA70A16940
:100910003844081A401EA0612078C00602D4204640
:10092000FFF7BEFC099828B1D4E901219047206A5D
:10093000401C20622078C00622D52046FFF7B0FC7C
:100940001EE0002E04DBB34502DD01A8805D00E05F
:100950003020D4E901219047206A401C2062761C97
:10096000AAF101005FEA000A0AD100F033F8C0687A
:100970000168405CD4E901219047206A401C206254
:10098000281EA5F10105DCDC07E0D4E9012118F8F7
:10099000010B9047206A401C2062381EA7F1010716
:1009A000F3DC2046FFF792FC032011B043E6000081
:1009B000074B70B50D467B4400F05FF804462846AF
:1009C00000F01CF910B14FF0FF3070BD204670BD33
:1009D000132200000048704754040020004870476C
:1009E0003404002030B5B0F10A024FEA900E71F1E4
:1009F00000034EEA817EB0EB0E0061EB91014FEAFD
:100A0000101E4EEA017E10EB0E0041EB11114FEA71
:100A1000102E4EEA016E10EB0E0041EB11214FEA51
:100A2000104E4EEA014E10EB0E0041EB1141401802
:100A300041F100014FEAD00040EA41704FEAD10194
:100A400010EB80054FEA810444EA907444EB010402
:100A50006D1944EB0404521BA3414FF0000348BF3F
:100A60000A3200D530BD401C41F1000130BD00000C
:100A700001694A1C02610878704700B58FB0CDE962
:100A800001310021059105497944CDE90310114652
:100A90006846FFF769FC0FB000BD0000E5FFFFFFEF
:100AA0002DE9F0411F46044603260168072A01F498
:100AB000006004DB08B116A505E016A503E008B147
:100AC00015A500E015A521F010002060A069C01E4A
:100AD000A0610FB1401EA0612046FFF7E1FB4FB1BE
:100AE000D4E9012138469047206A401C2062C01C8E
:100AF000206206E0206AFAE7D4E9012115F8010B2B
:100B00009047761EF8D22046FFF7E0FBBDE8F08163
:100B10004E414E006E616E00494E4600696E6600A1
:100B20002DE9F047814616468AB0334878440DC80F
:100B30008DE80D0030487844801C03AC0DC884E873
:100B40000D0041F69B300844372190FBF1F290FBF9
:100B5000F1F5A5F1800501FB12041B3C02D56442AE
:100B6000012000E00020DFF890A080460027FA4432
:100B7000AAF1BE0A0DE0E00709D03246684607EB4D
:100B800047010AEB810100F034FB8DE80700641097
:100B90007F1C002CEFD1184F7F44AC3F18E0E807D2
:100BA00014D007EB04100DF1180A90E80E008AE843
:100BB0000E00C068F04201D198190890324606A98B
:100BC00003A800F016FB03AB83E807006D10641C5C
:100BD000002DE4D132466946B8F1000F03A802D0D7
:100BE00000F0F3FA01E000F004FBC9E90001C9F8E4
:100BF00008200AB0BDE8F0873C370000007B00F019
:100C00008000704700487047340400207546FFF7A5
:100C1000F9FFAE4605006946534620F007008546B9
:100C200018B020B5FFF71CFBBDE820404FF00006D0
:100C30004FF000074FF000084FF0000B21F00701C4
:100C4000AC46ACE8C009ACE8C009ACE8C009ACE807
:100C5000C0098D46704710B50446AFF300802046AA
:100C6000BDE81040FFF7E7BA4FF0013C50F8042B05
:100C700051F8043B9A4221D1A2EB0C03934313EAAF
:100C8000CC1317D150F8042B51F8043B9A4215D1DC
:100C9000A2EB0C03934313EACC130BD150F8042BB3
:100CA00051F8043B9A4209D1A2EB0C03934313EA97
:100CB000CC13DBD04FF00000704700BFD01A01BA50
:100CC000B1FA81F101F0180122FA01F0CB40C1F133
:100CD0002001DBB2C0B2C01A2CFA01F3D11A914341
:100CE00011EAC311E6D170475FEA400C08BF91F0EA
:100CF000000F4FEA8C234FEAC12243EA51514FEAD9
:100D00001C5018BF00F5F0404FEA300018BF41F00A
:100D100000415FEA6C5C00F02980BCF1FF3F08BF36
:100D200040F080407047130C06BF12044FF0100CC7
:100D30004FF0000C130E04BF12020CF1080C130F3D
:100D400004BF12010CF1040C930F04BF92000CF1CC
:100D5000020CD30F04BF52000CF1010C11464FF0EE
:100D60000002A0F11F00A0EB0C00704711F0004F33
:100D700008BF704731F000413FF4D5AF0B0C06BF00
:100D800009044FF0100C4FF0000C0B0E04BF0902C9
:100D90000CF1080C0B0F04BF09010CF1040C8B0FB4
:100DA00004BF89000CF1020CCB0F04BF49000CF109
:100DB000010CCCF12003A0EB0C0022FA03F302FAA1
:100DC0000CF241EA030100F10100704720F07F4C72
:100DD00080EA030023F07F47ACEB070303F57C5365
:100DE00000F0004003F1FF032DE980494FEA154B65
:100DF00009B44FEA144325EA0B4E24EA03480FF2E4
:100E0000042606EB132749083E785FEA320203FB0B
:100E10000667C7F5000707FB06F64FEA54374FEAA7
:100E2000D64606F1020607FB066CCCF1005C4FEAE1
:100E30001C472CEA074C07FB06F40CFB06F504EBF9
:100E400015464FEA961634BF00204FF000404FEA97
:100E5000D13706FB07FC4FEA1C4C0CFB0BF7D21BEF
:100E600003FB0CF761EB07010CFB0EF7B0EB07403F
:100E700072EB17420CFB08F734BFA2EB0742B2EB50
:100E8000074261EB17414FEA0C444FEA910706FB1A
:100E900007FC4FEA1C4C0CFB0BF7B0EBC74072EBA6
:100EA000573203FB0CF734BFA2EBC742B2EBC74289
:100EB00061EB57310CFB0EF7B0EBC70072EB5772CA
:100EC0000CFB08F734BFA2EBC702B2EBC70261EB21
:100ED0005771039F4FEA816141EA921104EBCC0400
:100EE0004FEAD1374FEA826206FB07FC42EA9012D2
:100EF0004FEA80604FEA1C4C0CFB0BF7D21B03FB44
:100F00000CF761EB07010CFB0EF7B0EB074072EB3F
:100F100017420CFB08F734BFA2EB0742B2EB0742C3
:100F200061EB17414FEA8C554FEA910704EB9C2483
:100F300006FB07FC4FEA1C4C0CFB0BF7B0EBC74061
:100F400072EB573203FB0CF734BFA2EBC742B2EB94
:100F5000C74261EB57310CFB0EF7B0EBC70072EBE9
:100F600057720CFB08F734BFA2EBC702B2EBC70203
:100F700061EB577115EB4C254FEA816141EA921103
:100F80004FEA82624FEAD13742EA901206FB07FC31
:100F900044F100044FEA80604FEA1C4C0CFB0BF755
:100FA000D21B03FB0CF761EB07010CFB0EF7B0EB58
:100FB000074072EB17420CFB08F734BFA2EB074265
:100FC000B2EB074261EB174115EB1C154FEA81317B
:100FD00041EA92414FEA823242EA90424FEA80303F
:100FE0004FEA0C7644F1000448EA03434EEA0B480A
:100FF0004FF0000EB2EB080C71EB030724BF624602
:1010000039464EEB0E0E4FF0000B0018524149418D
:101010004BEB0B0BB2EB080C71EB03077BF1000BF6
:1010200024BF624639464EEB0E0E4FF0000B0018FF
:10103000524149414BEB0B0BB2EB080C71EB030730
:101040007BF1000B24BF624639464EEB0E0E51EA8F
:10105000020718BF46F0010616EB0E7655F10002A6
:1010600054F1000103D5BDE88901BDE80088BDE861
:101070008901BDE80048B619524141EB0101A3F1D5
:101080000103704780807F7E7D7C7B7A79787776DC
:1010900076757473727171706F6E6E6D6C6C6B6A55
:1010A0006A696868676666656464636362616160F3
:1010B000605F5F5E5E5D5D5C5C5B5B5A5A59595870
:1010C00058575756565555555454535352525251DA
:1010D000515050504F4F4F4E4E4D4D4D4C4C4C4B30
:1010E0004B4B4A4A4A494949484848474747474677
:1010F00046464545454444444443434343424242B3
:1011000042414141002B26D4770021D01CB54FEA43
:10111000370703B44FF010004FF010014FF00000FC
:101120000FBCBDE810400BF1010BBBF1010F08BF74
:101130005FEA170722BF12F1010211F101014FF01E
:10114000004143F1000300F0004043EA0000704713
:10115000F9D35708DAE746EA064613F1400F4FEA9B
:1011600016461FDD13F1200FDFBF16430A4600218C
:1011700020335B42C8D0C3F1200746EA064602FA94
:1011800007F74FEA164646EA0706C3F1200722FA98
:1011900003F201FA07F721FA03F14FF0000342EAE4
:1011A0000702B1E746EA020646EA06464FEA164655
:1011B00046EA0106BCBF46EA0646360C4FF000037D
:1011C0004FF000024FF000019EE72DE9C048934622
:1011D00030B491E8380007C831EA400C48BF34EA1F
:1011E000430C03D5FFF7F2FDFFF78CFFF0BCBDE821
:1011F00000882DE9C048934630B491E8380007C80C
:1012000010F0804F08BF13F0804F03D100F005F8B5
:10121000FFF778FFF0BCBDE8008820F07F4780EA48
:10122000030023F07F4C07EB0C03A3F57C5300F085
:101230000040A3F1FE0392F0000F00F0B38095F0A0
:10124000000F00F077802DE901494FEA11404FEA85
:10125000144621EA004800FB06FC24EA064708FB86
:1012600006F607FB08F800FB07F718EB06484CEBFF
:10127000164C4FEA124B18EB07484FEA15464CEB59
:10128000174022EA0B4E0BFB06FC25EA06470EFB35
:1012900006F607FB0EFE0BFB07F71EEB064E4CEBAC
:1012A000164C4FF000061EEB074E4CEB174B18EB9D
:1012B0000B0840F1000018EB0E0B58EB000840F152
:1012C00000008F1A4FF000013CBFC943661B14BFDA
:1012D000B5EB040C00213CBFC943F61B4FEA174491
:1012E0004EEA8E0E27EA04454FEA1C4704FB0762CC
:1012F0002CEA074C05FB07F70CFB05F604FB0CFC7E
:1013000016EB074642EB174216EB0C4642EB1C422B
:101310001BEB060658EB0202414146EA9E0601D548
:10132000BDE80189B619524141EB0101A3F1010366
:10133000BDE801894FEA14454FEA114724EA054602
:1013400021EA074C05FB07F406FB07F70CFB06F147
:1013500005FB0CFC11EB074144EB17444FEA124725
:1013600011EB0C4144EB1C4422EA074C05FB07F24D
:1013700006FB07F70CFB06F605FB0CFC16EB074615
:1013800042EB174216EB0C4642EB1C456A1854F12F
:10139000000148BF7047B619524141EB0101A3F16A
:1013A0000103704795F0000F37D04FEA11424FEA22
:1013B000144721EA024624EA074C02FB07F106FB28
:1013C00007F70CFB06F402FB0CFC14EB074441EBA3
:1013D00017414FEA154714EB0C4441EB1C4125EA39
:1013E000074C02FB07F506FB07F70CFB06F602FBB2
:1013F0000CFC16EB074645EB174516EB0C4645EB88
:101400001C42121951F1000148BF7047B6195241F0
:1014100041EB0101A3F1010370474FEA14454FEA84
:10142000114724EA054621EA074C05FB07F106FBB4
:1014300007F70CFB06F24FF0000605FB0CFC12EB65
:10144000074241EB174112EB0C4251EB1C4148BFE4
:101450007047921841EB0101A3F10103704721B1DC
:10146000826842F00102826003E0826822F0010299
:10147000826070470021084A1168084A1140D0E98B
:1014800000231A4383681A43C3681A431143044A6A
:10149000C2F804137047000004230140E030FCFF51
:1014A000002001400146C86C80B27047024600200F
:1014B00013680B400BB1012000E0002070470000D2
:1014C00030B50246002000235068104C20400D79B2
:1014D0000C6844EA05242043506090680C4C20407E
:1014E000D1E903542C438D682C434D7944EA4504DB
:1014F00020439060D06A20F470000C7D641EE4B23A
:10150000234340EA0350D06230BD0000FFFEFFFCE1
:10151000FDF7FFC0F0B504460D4600200021092D5F
:1015200011DDE068A5F10A0606EB4607072606FA74
:1015300007F18843A5F10A0606EB460603FA06F111
:101540000843E0600CE0206905EB4507072606FA32
:1015500007F1884305EB450603FA06F108432061CD
:10156000072A0FDA606B561E06EB86071F2606FA5F
:1015700007F18843561E06EB860605FA06F1084376
:10158000606322E00D2A0FDA206BD61F06EB860778
:101590001F2606FA07F18843D61F06EB860605FAD2
:1015A00006F10843206310E0E06AA2F10D0606EBA5
:1015B00086071F2606FA07F18843A2F10D0606EBFF
:1015C000860605FA06F10843E062F0BD816841F045
:1015D000804181607047000000B58BB00121080296
:1015E00000F0DEFE0121080200F0EAFE00214FF4C7
:1015F000807000F0E5FE002007900A9009904FF4FB
:101600008030089007A8FFF735FF002001908DF883
:1016100008008DF809000390059001208DF818004E
:1016200001A90448FFF74CFF01210248FFF717FF0B
:101630000BB000BD002001401CB50121042000F0CA
:101640009FFE0220009003208DF8040000208DF8FA
:1016500007006946044800F0ADFD08200090694687
:10166000014800F0A7FD1CBD0008024010B504466B
:101670000723012221460848FFF74CFF0648FFF7E1
:10168000A5FF00BF02210448FFF710FF0028F9D092
:101690000148FFF707FF10BD0020014010B5FFF71C
:1016A000CBFFFFF799FF10BD1CB50121084600F0E4
:1016B00067FE072209210D4800F0C4FD07220A2118
:1016C0000A4800F0BFFD4FF4C060009002208DF882
:1016D00004008DF8050000208DF8060001208DF82B
:1016E00007006946014800F065FD1CBD000002408E
:1016F00010B50446204600F017F8FFF7D5FF00F0BC
:1017000001F810BD08B525208DF800000C208DF8DB
:10171000010000208DF8020001208DF803006846CA
:1017200000F0C6FD08BD00001FB5044601211020D1
:1017300000F036FE00940020ADF80400ADF806007D
:10174000ADF80800ADF80C000C20ADF80A006946B1
:10175000064801F047F9012240F22551034801F003
:101760001BF90121014801F0E1F81FBD0010014003
:1017700010B56FF0040000F03FFF0A4800680A4906
:10178000B0FBF1F0094908700846007800EB400111
:10179000C1EBC0104FF6FF7101EAC0000449088098
:1017A00010BD00000800002000127A000400002094
:1017B0000600002070B504464FF4077094FBF0F06B
:1017C000C6B24FF4077094FBF0F100FB114085B2F4
:1017D00005E04FF4077000F009F8701EC6B2002E45
:1017E000F7D115B1284600F001F870BD0146114A45
:1017F00012884A434FF0E0235A6100229A611A4648
:10180000126942F001021A6100BF4FF0E022106934
:1018100000F001021AB100F48032002AF5D04FF036
:10182000E022126922F001024FF0E0231A61002247
:101830009A617047060000201CB50121880300F062
:10184000AFFD0D21062000F041FE4FF40050009046
:1018500000208DF8040008208DF8050001208DF887
:101860000600684600F05CFC0921052000F02EFE11
:101870004FF400700090684600F052FC1CBD000060
:101880001CB50121602000F07BFD00208DF80400D4
:1018900003208DF8050002208DF80700000300905A
:1018A0006946054800F086FC4FF4007000906946D8
:1018B000024800F07FFC1CBD0018024000140240EA
:1018C00010B5FFF7DDFF00F003F8FFF7B5FF10BD1F
:1018D00008B517208DF8000008208DF801000020C1
:1018E0008DF8020001208DF80300684600F0E0FC4E
:1018F00028208DF8000008208DF8010000208DF8C8
:10190000020001208DF80300684600F0D1FC08BDFC
:101910001CB50121602000F033FD4FF40040009021
:1019200001208DF8040003208DF8050000208DF8BB
:10193000060002208DF8070069460D4800F03AFCC9
:101940004FF40060009001208DF8040003208DF812
:10195000050000208DF8060002208DF8070069467A
:10196000044800F027FC032000F00AF81CBD00002A
:10197000001802400014024010B5FFF7C9FF10BD67
:1019800000F0010119B14FF40041054A118000F047
:10199000020119B14FF40061024A11807047000042
:1019A0001A1802401A14024000F0010119B14FF454
:1019B0000041054A118000F0020119B14FF40061A5
:1019C000024A1180704700001818024018140240A3
:1019D0002DE9F04F8BB083460C46204602F01CF9EF
:1019E000074601F0AFFA054600224FF0804302F0AF
:1019F00029F8CDE90401584602F00EF90746254AB8
:101A0000254B01F071FC05460E46584602F004F9DC
:101A100007460022214B01F00BFF2A463346CDE951
:101A2000000101F01DFD81461D4A1E4B01F05CFCCA
:101A3000CDE90201DDE9042301F056FCCDE9060100
:101A400001F020FC0990099802F0E6F80546164AD4
:101A5000164B01F0F7FF81468A46099802F0DCF840
:101A600007460F4A0F4B01F0E1FF0546094A0A4BB2
:101A700001F0DEFE4A465346CDE9040101F0F0FCD8
:101A8000CDE9060101F0FEFB089008980BB0BDE817
:101A9000F08F00009A99999999A96D4000001E4015
:101AA00085B185200725E53F185B0872505220401C
:101AB0002DE9FF4F8BB00C4615461E4635480A905F
:101AC00035480990354808903548079035480690C4
:101AD00031480590344804900B9802F037F980465D
:101AE0002D4902F07BF907462A4902F0C1F88246E7
:101AF000204602F02BF90290204602F027F92949EE
:101B0000019002F06BF98346029902F067F90746EB
:101B1000204602F01BF92249029002F05FF9834649
:101B20001E4902F0A5F88046394602F0A1F803905C
:101B3000204602F00BF91C49019002F04FF9834650
:101B4000154902F095F880461849504602F044FACB
:101B50004146029002F042F90746039902F088F8E4
:101B600081461349484602F005FA01D2DFF8409059
:101B7000484602F051F807460E4A0F4B01F01CFE92
:101B800001D2DFF83890C6F80090C5F800A00FB079
:101B9000BDE8F08FCDCC1EC20AD7233CC5FE02C0E3
:101BA000BD52163DF624D6B5ACC5A7380000C841D5
:101BB0000000C8429A9999999999B93FCDCCCC3DEA
:101BC00010B500F031F880210D4800F069FB40218C
:101BD0000B4800F063FB00240DE04021084800F0B2
:101BE0005FFB00F037F84021054800F057FB00F09C
:101BF00031F8601CC4B2092CEFDB00F0F3F810BD23
:101C0000000402401CB58020009003208DF80500E0
:101C100000208DF804008DF807006946014800F0A7
:101C2000C9FA1CBD000402401CB5802000900320AE
:101C30008DF8050001208DF8040000208DF80600C5
:101C400001208DF807006946014800F0B3FA1CBD79
:101C50000004024008B540F2DC50009004E0BDF8FA
:101C60000000401E80B20090BDF800000028F6DCA5
:101C700008BD00001CB50121022000F081FB80207E
:101C8000009003208DF8050001208DF8040000204D
:101C90008DF8060001208DF8070069460B4800F01A
:101CA00089FA4020009003208DF8050001208DF86E
:101CB000040000208DF8060001208DF80700694619
:101CC000024800F077FAFFF77BFF1CBD00040240DA
:101CD0002DE9F04706460F4690460024A146A2464D
:101CE00000F080F8B8F1000F03D0B8F1010F0CD16B
:101CF00005E0032000F0A8F82044C4B206E0052067
:101D000000F0A2F82044C4B200E000BF00BFFFF71B
:101D100079FF002506E08021114800F0B6FA00B9ED
:101D200003E06D1C0F488542F5D300BF80210C48AD
:101D300000F0ABFA012801D1601CC4B2012000F010
:101D400013F88146012000F00FF88246002000F0D1
:101D50000BF838704AEA092030802046BDE8F08749
:101D60000004024000A24A0470B505460026FFF7B1
:101D700049FF802416E0FFF76DFF4021184800F06E
:101D80008FFAFFF767FF8021154800F07EFA00B157
:101D900026434021124800F081FA204604EBD0711E
:101DA000C1F34704002CE6DCFFF73EFF25B180219C
:101DB0000B4800F073FA03E08021094800F070FA44
:101DC000FFF748FF4021064800F06AFAFFF742FF9C
:101DD0004021034800F062FAFFF73CFF304670BD37
:101DE0000004024010B5FFF71FFF8021154800F0E6
:101DF00057FA4021134800F051FAFFF72BFF40211A
:101E0000104800F04DFAFFF725FF80210D4800F043
:101E100045FAFFF71FFF40210A4800F03FFAFFF79D
:101E200019FF4021074800F03BFAFFF713FF80211C
:101E3000044800F035FAFFF70DFF4021014800F09B
:101E40002DFA10BD0004024070B505460026FFF7CC
:101E5000EBFE80241EE004EA050020B18021174833
:101E600000F01EFA03E08021144800F017FAFFF793
:101E7000F1FE4021114800F013FAFFF7EBFE40217C
:101E80000E4800F00BFAFFF7E5FE204604EBD07198
:101E9000C1F34704002CDEDCFFF7B4FE4021074805
:101EA00000F0FEF98021054800F0EFF906464021D8
:101EB000024800F0F3F9304670BD00000004024013
:101EC00010B5044614F57A7F01DA064C04E0B4F547
:101ED0007A7F01DD4FF47A7404F2DC51024800F09D
:101EE000CDFC10BD18FCFFFF0000014010B50446FA
:101EF00014F57A7F01DA064C04E0B4F57A7F01DD4F
:101F00004FF47A7404F2DC51024800F0B5FC10BDC5
:101F100018FCFFFF0000014010B5044614F57A7F5D
:101F200001DA064C04E0B4F57A7F01DD4FF47A74EF
:101F300004F2DC51024800F0A3FC10BD18FCFFFFC6
:101F4000000001401CB50121072000F019FA012210
:101F50000E21174800F076F901220821154800F0FB
:101F600071F901220F21124800F06CF94FF4804002
:101F7000009002208DF8040003208DF80500002059
:101F80008DF8060001208DF807006946084800F02A
:101F900011F94FF4807000906946064800F00AF984
:101FA0004FF4004000906946014800F003F91CBD61
:101FB000000402400000024010B5FFF7C3FF00F02C
:101FC0000BF80020FFF77CFF0020FFF78FFF0020B9
:101FD000FFF7A2FF10BD000000B589B0012108463F
:101FE00000F0DEF944F61F600790A720ADF8180056
:101FF0000020ADF82000ADF81A008DF8220006A9E7
:10200000174800F03FFC6020ADF804000120ADF857
:1020100006000420ADF8080000200390ADF8100081
:102020000820ADF812004001ADF814000020ADF812
:10203000160001A90A4800F03FFB01A9084800F07A
:1020400079FB01A9064800F0C7FB0121044800F014
:1020500023FB0121024800F013FB09B000BD000082
:102060000000014000BFFEE77047000010B54FF4CC
:102070000051144800F009F958B10A20FFF79AFB03
:102080004FF400510F4800F000F910B10EA0FEF718
:10209000FBF802210F4800F0F8F868B10A20FFF7BA
:1020A00089FB02210B4800F0F0F828B10AA0FEF7E6
:1020B000EBF80220FFF778FC4FF4005000F02AF80C
:1020C00010BD000000180240D3EAD1A9A3A10D0A57
:1020D0000000000000000240D1CCCEEDB1A8BEAFA0
:1020E000A3A1A3A1A3A10D0A0000000010B54FF405
:1020F0000071064800F0C9F80121054800F0C5F854
:102100004FF4007000F006F810BD0000001402400B
:10211000000002400149086070470000143C014083
:10212000002123498279002A3AD00A4612680368BE
:102130009A430B461A600A1D126803689A430B1DE6
:102140001A60027911440A6803681A430A60184A3F
:102150000832126803689A43154B08331A601A1D37
:10216000126803689A43124B0C331A604279102AA2
:102170000ED11A1F126803681A430D4B08331A60F8
:102180001A1D126803681A43094B0C331A600DE0DC
:102190000749427911440A6803681A430A6005E056
:1021A000027911440A6803689A430A607047000084
:1021B000003C0140F0B50A4600210023002400BF86
:1021C0003DE0012505FA01F3156805EA03049C4288
:1021D00034D105684F000326BE40B543056015792C
:1021E0004E00B5400668354305601579012D02D0D3
:1021F0001579022D16D185684F000326BE40B543E0
:10220000856055794E00B5408668354385604568E0
:1022100001268E40B5434560456896798E40B6B23A
:1022200035434560C5684F000326BE40B543C560D1
:10223000D5794E00B540C6683543C560491C1029A4
:10224000BFD3F0BDF0B5002300244D07ED0E02FA18
:1022500005F3CE1000F1200555F826504E07F70E75
:102260000F26BE40B543CF1000F1200646F8275098
:10227000CE1000F1200555F8265045EA0304CE1093
:1022800000F1200545F82640F0BD02460020136904
:102290000B400BB1012000E00020704741837047E4
:1022A0000183704700BFFEE700BFFEE770470000F4
:1022B00070B5002100230F22C4781CB3174C24688A
:1022C00004F4E064C4F5E064C4F30721C1F104043C
:1022D000E3B20A4144789C40E1B28478144021433F
:1022E0000C07210E0E4C05786155047804F01F058B
:1022F0000124AC4005786D11AD0005F1E025C5F86D
:10230000004109E0047804F01F050124AC40054DAC
:102310000678761145F8264070BD00000CED00E00F
:1023200000E400E080E100E002490143024A11605C
:10233000704700000000FA050CED00E07047000057
:1023400001460E488088B0F5806F01D101207047AA
:102350000A484288801D8154821F5288501CC2172F
:1023600000EB92529212A0EB8222044B5A80184644
:102370008088401C1A4690800020E8E72C0000204E
:1023800029B1064A12680243044B1A6004E0034A6A
:1023900012688243014B1A607047000030380240D7
:1023A00029B1064A12680243044B1A6004E0034A4A
:1023B00012688243014B1A607047000044380240A3
:1023C00029B1064A12680243044B1A6004E0034A2A
:1023D00012688243014B1A607047000024380240A3
:1023E000F0B5002100220024022500260223324FEE
:1023F0003F6807F00C0121B1042905D0082937D125
:1024000005E02E4F076036E02D4F076033E02A4F7E
:102410003F1F3F68C7F38056274F3F1F3F6807F0B5
:102420003F036EB1264FB7FBF3F7DFF88CC0ACF17A
:10243000040CDCF800C0CCF3881C07FB0CF40CE0A7
:102440001E4FB7FBF3F7DFF870C0ACF1040CDCF8FB
:1024500000C0CCF3881C07FB0CF4174F3F1F3F68EC
:10246000C7F301477F1C7D00B4FBF5F7076002E06E
:10247000124F076000BF00BF0F4F3F6807F0F00129
:102480000909104F7A5C0768D74047600A4F3F68D8
:1024900007F4E051890A0B4F7A5C4768D7408760A0
:1024A000054F3F6807F46041490B064F7A5C476867
:1024B000D740C760F0BD0000083802400024F40097
:1024C00000127A001C0000207047000030B5002286
:1024D0008B071C0F0F2303FA04F20B4B8C1053F8DD
:1024E00024309343084C8D1044F8253023468C103B
:1024F00053F824308C07240F00FA04F42343024CD1
:102500008D1044F8253030BD083801400CB500204E
:10251000019000903448006840F4803032490860EF
:1025200000BF3148006800F4003000900198401C62
:102530000190009818B90198B0F5A04FF1D12A4840
:10254000006800F4003010B10120009001E000208C
:1025500000900098012846D123484030006840F0A0
:1025600080502149403108602048006840F44040D4
:102570001E4908601C48083000681B490831086083
:102580000846006840F4004008600846006840F4CF
:10259000A05008601648091F0860081F006840F036
:1025A0008070091F086000BF0F48006800F00070CD
:1025B0000028F9D040F205700E4908600A4808303A
:1025C000006820F0030008490831086008460068E8
:1025D00040F00200086000BF03480830006800F0C7
:1025E0000C000828F8D10CBD0038024000700040F3
:1025F00008544007003C0240042808D14FF0E02175
:10260000096941F004014FF0E022116107E04FF049
:10261000E021096921F004014FF0E02211617047C7
:102620007047000010B51248006840F001001049E2
:10263000086000200E49083108600D4800680D4907
:1026400008400B4908600C48091D0860081F006815
:1026500020F48020091F0860002005490C31086023
:10266000FFF754FF4FF000600449086010BD000000
:1026700000380240FFFFF6FE1030002408ED00E0B5
:1026800021B1028842F00102028004E002884FF684
:10269000FE731A400280704731B1B0F8442042F412
:1026A0000042A0F8442005E0B0F84420C2F30E0236
:1026B000A0F844207047000070B5002400220023D9
:1026C000058C4FF6FE7635400584028C8388048B9A
:1026D0004FF68F752C40B51E2C400D882C43751E6F
:1026E0002A408D892A434D882A43104DA84202D0A2
:1026F0000F4DA84213D14FF6F7752A40CD892A43D2
:102700004FF6FB752A408D882A434FF6FF652B4014
:102710004FF6FF552B400D8A2B434D8A2B43838068
:1027200004838D684563028470BD00000000014091
:102730000004014070B5002400220023058C4FF6F0
:10274000EF7635400584028C8388048B48F6FF754C
:102750002C404FF6FF452C400D884FF6FF7606EAD9
:1027600005252C434FF6DF752A408D8906EA0515AD
:102770002A434D8806EA05152A43154DA84202D082
:10278000144DA8421DD14FF67F752A40CD894FF6D2
:10279000FF7606EA05152A434FF6BF752A408D8855
:1027A00006EA05152A434FF6FF352B404FF2FF7519
:1027B0002B400D8A06EA85052B434D8A06EA8505DE
:1027C0002B43838004838D688563028470BD000081
:1027D000000001400004014070B5002400220023E5
:1027E000058C4FF6FF6635400584028C8388848B08
:1027F0004FF68F752C404FF6FC752C400D882C43FE
:102800004FF6FF552A408D894FF6FF7606EA0525DB
:102810002A434D8806EA05252A43154DA84202D0D1
:10282000144DA8421DD14FF2FF752A40CD894FF6B5
:10283000FF7606EA05252A434FF6FF352A408D88A4
:1028400006EA05252A434EF6FF752B404DF6FF7527
:102850002B400D8A06EA05152B434D8A06EA05151D
:102860002B43838084838D68C563028470BD000020
:1028700000000140000401404163704781637047DC
:10288000C163704700220288184B98420ED0184B43
:1028900098420BD0B0F1804F08D0164B984205D02B
:1028A000154B984202D0154B984204D14FF68F73C6
:1028B0001A404B881A43124B984207D0114B98424A
:1028C00004D04FF6FF431A400B891A4302804B682D
:1028D000C3620B880385054B984202D0044B984293
:1028E00001D18B7A03860123838270470000014067
:1028F000000401400004004000080040000C0040BB
:10290000001000400014004010B540F22551064868
:1029100000F018F830B1044800F0CEF80446E0B2F8
:10292000FFF70EFD10BD00000010014021B18289AB
:1029300042F40052828104E082894DF6FF731A400E
:102940008281704770B502460024002300250020D4
:1029500040F66A16B14200D100BFC1F3421501F042
:102960001F03012606FA03F3012D02D19689334095
:1029700006E0022D02D1168A334001E0968A3340E8
:102980000C12012606FA04F41688344013B10CB177
:10299000012000E0002070BDF0B5034600240026B1
:1029A0000025002040F66A17B94200D100BF184642
:1029B000C1F3421401F01F06012707FA06F5012CA6
:1029C00001D10C3004E0022C01D1103000E01430B1
:1029D0001AB107682F43076002E00768AF4307603A
:1029E000F0BD00002DE9FF4705460E460024A14634
:1029F00000BFA046B08900B100BF2C8A24F4405427
:102A0000F08804432C82AC8941F20C608443B08886
:102A100031890843718908430443AC81AC8A24F4AA
:102A20004074B0890443AC826846FFF7D9FC204863
:102A3000854202D01F48854202D1DDF80C9001E0AA
:102A4000DDF80890A88900F4004040B109EBC90006
:102A500000EB091031684900B0FBF1F707E009EB22
:102A6000C90000EB091031688900B0FBF1F7642060
:102A7000B7FBF0F004012009642101FB1078A8895C
:102A800000F4004040B1322000EBC800B0FBF1F090
:102A900000F00700044308E0322000EB0810642136
:102AA000B0FBF1F000F00F0004432C81BDE8FF877C
:102AB000001001400014014001468888C0F308005E
:102AC000704700BFFEE7490050EAC12018BF04204C
:102AD0004A0D18BF40F0010040F2FF72B2EB515FA7
:102AE00008BF40F00200012808BF052070472DE90B
:102AF000F0414F1E00EBC7010446D1E90001154625
:102B00001E4637F006020DD02A46334600F090FEEE
:102B10007F1E04EBC703D3E9002300F0E5FB37F089
:102B20000602F1D1022F25D0042F13D0062F18BF93
:102B3000BDE8F0812A46334600F07AFED4E90A2344
:102B400000F0D2FB2A46334600F072FED4E9082397
:102B500000F0CAFB2A46334600F06AFED4E9062399
:102B600000F0C2FB2A46334600F062FED4E904239B
:102B700000F0BAFB2A46334600F05AFED4E902239D
:102B800000F0B2FB2A46334600F052FED4E900239F
:102B9000BDE8F04100F0A8BB0022134610460149F1
:102BA00000F05EBC0000F03F012201F0BEBA00223E
:102BB00013461046114600F053BC30380A2801D2A3
:102BC000012070470020704700BF704700BF054AD2
:102BD000128802F04002002AF9D0C0F30802014B2B
:102BE0009A807047001001402DE9F04DC84A00243A
:102BF00090B0914205DA21F00043934201D805D10B
:102C000020B110B0BDE8F04DFFF7CEBFB1F5801F89
:102C10001BDA53EA000209D0002911DA0120FDF77E
:102C20005AFC10B0BDE8F04DFFF7C1BF0220FDF720
:102C300052FCFFF7B1FF10B081F00041BDE8F08D0C
:102C40006FF03504362201F070FA04EB2152C1F323
:102C50001308B049A2F2FF33414401F4801282F01C
:102C60007F6103EB225281F04051009241EA08015A
:102C70000022A94B00F0E6FE044608F10200A74E30
:102C8000C0F313000D467E44032867D2D6E9002323
:102C9000204600F03DFD1ED10098002802BFD6E975
:102CA000000110B0BDE8F08D00F06EFD07460C4647
:102CB0009B4A9C4B00F0BCFD06460D469A4A9B4B36
:102CC0003846214600F0B4FD10B032462B46BDE830
:102CD000F04D00F009BB4FF05532954B2046294688
:102CE00000F0A6FD0022934B00F0A0FE06460F4622
:102CF00022462B461046194600F09AFD32463B46C6
:102D000000F096FD064600980F46F0B100F03CFD3D
:102D100080468A46824A834B00F08AFD32463B4613
:102D200000F084FE22462B4600F08CFE05460C4641
:102D30007D4A7E4B4046514600F07AFD10B02A464F
:102D40002346BDE8F04D00F07DBE0B4610B0324684
:102D500020462946BDE8F04D00F074BE00224FF039
:102D60008043204600F0C0FA02460B462046294622
:102D700000F076FB06460F46009800F005FDCDE911
:102D8000040132463B461046394600F051FD0C9096
:102D900069480C9A4044019009910B46104600F096
:102DA00047FD8246024665488B46C8F151080B46EE
:102DB00008F5D72803217844FFF799FE52465B4671
:102DC00000F036FD0A905E480D9152465B460421A4
:102DD0007844FFF78CFE099B0C9A00F029FD84468D
:102DE00001980D9B40EA080860460A9A00F07CFAB8
:102DF00083460891B8F1000F4EDD4FF0FF322046B8
:102E0000294601F092F922462B4600F011FD80463A
:102E100000988A4660B3DDE90401414A414B00F065
:102E200007FD099100905A4640465146089B00F024
:102E30005BFA32463B4600F0FBFC099B009A00F02F
:102E400053FA4246534600F0F1FD22462B4600F06D
:102E5000F9FD04460D46DDE90401334A334B00F029
:102E6000E7FC10B022462B46BDE8F04D00F0EABD6D
:102E70005A464046089B00F037FA32463B4600F07F
:102E8000D7FC4246534600F0D1FD10B022462B46F7
:102E9000BDE8F04D00F0CABD009840B3DDE9040183
:102EA0001F4A204B00F0C4FC80468A465A46204602
:102EB0002946089B00F0C6FD32463B4600F0B8FCB0
:102EC0004246534600F0BEFD22462B4600F0BAFDB6
:102ED00004460D46DDE90401134A144B00F0A8FC3A
:102EE00010B022462B46BDE8F04D00F0ABBD0B46BE
:102EF0005A462046294600F0A5FD32463B4600F0E2
:102F000097FC10B022462B46BDE8F04D00F08EBD78
:102F10000000F07F645F09000000F03FFE15000034
:102F2000763C7935EF39EA3D0000E0FE422EE63F7F
:102F30005555D53F0000E03F86EBF9FFFE1300003A
:102F4000FC1300002DE9F041044630480025814281
:102F500005DA21F00042824201D805D124B1204691
:102F6000BDE8F041FFF720BEB1F5801F1BDA52EA41
:102F7000040008D000290FDA0120FDF7ACFABDE803
:102F8000F041FFF714BE0220FDF7A5FAFFF704FE9B
:102F900081F00041BDE8F0816FF035053622204612
:102FA00001F0C3F8044605EB2150A0F2FF32D00F28
:102FB00040F2FF331B1A0D4663F31F55104400F017
:102FC000E3FB06460F4629462046FFF70DFE104A52
:102FD000104B00F02DFC04460D460F4A0F4B3046B7
:102FE000394600F025FC22462B4600F07DF90546C7
:102FF0000C460B4A0B4B3046394600F019FC2A466A
:103000002346BDE8F04100F06FB900000000F07FFA
:103010000EE526157BCBDB3F362BF111F3FE593D38
:1030200000609F501344D33F94B000240025142126
:103030000EA8FDF720FA0026A346A14600200B901B
:103040000A900990089082464FF44070FFF76CF99F
:103050004FF4E130FEF74CFBFEF78AFB58A0FDF77A
:1030600013F9FEF707FEFEF719FBFEF785FCFEF7E6
:1030700027FCFEF7A1FFA2E0002407E00B20FEF7EB
:10308000F5FA0EA921F81400601CC4B20A2CF5DB75
:1030900000241BE0601CC5B214E00EA830F8140038
:1030A0000EA931F8151088420ADD0EA830F8146018
:1030B00030F815000EA921F814000EA820F81560AC
:1030C000681CC5B20A2DE8DB601CC4B2092CE1DB28
:1030D0004FF0000B022405E00EA830F814008344E2
:1030E000601CC4B2082CF7DB0620BBFBF0F086B2F4
:1030F000B6F5166F01DD4FF0010A02213D48FFF7DA
:10310000C4F810B90220FEF73BFCBAF1010F06D15A
:103110000120FEF749FC4FF4FA70FEF7D1FEBAF138
:10312000000F05D10120FEF72BFC3348FEF7C8FE47
:10313000314632A0FDF7A8F8514634A0FDF7A4F8B7
:1031400000220BA90CA8FEF7C3FD484400F0FF09BC
:1031500001220BA90DA8FEF7BBFD484400F0FF09B2
:10316000B9F1000F02D0FEF72BFD0CE00AAB09AA63
:10317000BDF83410BDF83000FEF79AFCDDE9090116
:10318000FEF726FC0890089800F046FD07468846A2
:103190000A9800F041FDCDE90601099800F03CFDD8
:1031A000CDE90278CDE90401DDE90601CDE90001B0
:1031B0001AA0DDE90423FDF767F84FF0000A5BE78A
:1031C0002A2A2A2A2A2A2A2A2A2A2A2A2A2A2A2A5F
:1031D0002A2A2A2A2A2A2A544553542A2A2A2A2AB7
:1031E0002A2A2A2A2A2A2A2A2A2A2A2A2A2A2A0D5C
:1031F0000A000000000002400CFEFFFF414443D6DD
:10320000B5203A202564200D0A0000007374617413
:1032100065D6B5203A202564200D0A00B5B1C7B0A7
:10322000BBB7BEB3CEC2B6C8CEAA3A25322E3166DF
:10323000A1E6A3ACCAAAB6C8CEAA3A25322E3166F8
:103240002525A3ACC2B6B5E3CEC2B6C8CEAA2532F8
:103250002E3166A1E60D0A0010B500290AD00878C3
:10326000002807D005487844FDF7FEFC002801D06F
:10327000002010BD0248784410BD00004A10000034
:103280004210000021F00042A2F16052B2F5801F0E
:1032900001F0004328BFD2F17F6C0BD95FEA001C1C
:1032A00043EAC20242EB507018BF704728BF20F0BB
:1032B00001007047B2F5801FBCBF184670474FEA47
:1032C000410C1CF5001F02D2084600F04EBE70B53E
:1032D00000F058FB00000089FFF7F6BF4FF00040F8
:1032E000A0F580007047000010B591EA030F48BFB9
:1032F00083F0004300F1AE83841A71EB030C05D216
:10330000121943EB0C03001B61EB0C01DFF824E105
:103310004FEA1154A4EB135C1EEA430F18BF9EEA58
:10332000445F73D023EA0E03DCF1200E21EA04513E
:1033300043F4801332D322FA0CFE10EB0E0023FA72
:103340000CFE41EB0E01CCF1200E03FA0EFE10EB49
:103350000E0051F10001B1F5801FCCF1200E32D2E8
:1033600001EB045112FA0EF2BDE8104058BF70474D
:10337000401C38BF5FEA420218BF7047002814BFE4
:1033800020F0010041F100014FEA410313F5001F55
:1033900038BF7047A1F1C04100F042BB012A43EBA6
:1033A0000302ACF1200CDCF11F0E32BF4FF0000E17
:1033B00023FA0CF310EB030041EB0451B4EB115F63
:1033C000D0D0A1EB045101F5801149085FEA30002B
:1033D00001EB04510ED350F1000038BF12FA0EFE7B
:1033E00008D1BDE81040C9E7401C38BF5FEA42027F
:1033F000CAD1C3E7BDE810404FEA410313F5001FEF
:1034000038BF7047A1F1C04100F00ABB9EEA445F9B
:1034100008D011EA5E0FBDE8104004BF01F0004182
:1034200000207047BDE8104070B500F0ABFA00BF57
:1034300064FBBE3E0000E0FF02494FF0000000F0D8
:1034400042BE00BF0000F87F491058BFC1F14041A3
:103450005B1058BFC3F140438B42EFF300807047CD
:103460002DE9C04130B4DFF8A0C23CEA111418BF06
:103470003CEA131400F0EC8081EA03051CEA111405
:1034800044EAD57418BF1CEA131500F0C780A4EBFA
:1034900005044FF0004545EAC12145EAC32341EA4E
:1034A000505143EA525304F17F74994204F50034B9
:1034B0004FEAC0204FEAC22208BF904200F09C8031
:1034C0004FEA13650FF24016765D4FEA134506FB8F
:1034D00005F7C7F1807706FB07F74FEAD737A7FB59
:1034E00003687642C8F58038A7FB06CE38BFA8F13E
:1034F000010807FB08E64FF0000EA6FB028CE6FB76
:1035000003CEDCF1000CCEF1004E38BFAEF1010E5F
:10351000A6FB0C584FF000074FF00005E6FB0E87A6
:10352000A1FB08C6A0FB07CE16EB0E0645F1000571
:10353000E1FB076515F1E04E7EBFA4F580345FEA3C
:1035400046066D4116F1800745F100054FEA172741
:103550004FEA066647EA0567A6F1DE46B6F1805FE8
:103560004FEA15251FD9384624F0010C05EBC4712C
:10357000BCF1FE6F01EB0C1102D8F0BCBDE800817C
:1035800024425CBF01F5801E9EEAC47F02D4F0BCD9
:10359000BDE80081244238D4F0BCA1F1C041BDE8AF
:1035A000004100F03DBA4FEAD22242EA43524FEACC
:1035B000D323A7FB02864FEAD02040EA415007FB05
:1035C00003661EEA0E0F4FEAD12105FB026658BFC3
:1035D000A6EB0056B6EB00564FEA520E4EEAC37EFB
:1035E00018EB0E0E56EB530EBDD518EB02085E41DC
:1035F0007F1C55F10005B6E74FF480154FF000072A
:103600004FF000064FF00008ADE7F0BC4FF00000AF
:1036100001F1C04101F00041BDE8008111EA0C1F39
:103620000CEA131500D00CE013EA0C1F00F0258003
:103630004FF00000F0BC81EA030101F00041BDE859
:103640000081F0BCBDE8004181EA030100F0E8B967
:10365000F0BCBDE8004170B500F094F9097EFC3E75
:1036600000F007B881EA03014FF0000001F00041CB
:10367000704781EA030100F0D3B9F0BCBDE8004116
:103680004FF0000021497047FFFDFBF9F7F5F4F218
:10369000F0EEEDEBE9E8E6E4E3E1E0DEDDDBDAD8ED
:1036A000D7D5D4D3D1D0CFCDCCCBCAC8C7C6C5C44B
:1036B000C2C1C0BFBEBDBCBBBAB9B8B7B6B5B4B362
:1036C000B2B1B0AFAEADACABAAA9A8A8A7A6A5A44D
:1036D000A3A3A2A1A09F9F9E9D9C9C9B9A99999811
:1036E0009797969595949393929191908F8F8E8EB4
:1036F0008D8C8C8B8B8A8989888887878685858441
:1037000084838382828181800000FF070000F87F2C
:1037100051EA030C17D41CF5801F58BFBCF5801F5D
:1037200000F10680994218BF704708BF9042704769
:1037300007D711F5801F58BF13F5801F19D4994280
:103740007047894270471CF5801F08D5BCF5801F63
:10375000F7D58B4218BF704708BF824270474FF4BD
:10376000001C1CEB410F38BF1CEB430F01D28B42F6
:10377000704770B500F006F9922449004FF00051EF
:103780004FF08053FFF760BE10F0004248BF404248
:10379000B0FA80F310FA03F10AD0C3F11D0303F568
:1037A00080634FEA415002EB035202EBD121704794
:1037B0004FF000007047000051EA030C17D41CF5CD
:1037C000801F58BFBCF5801F00F10680994218BFCA
:1037D000704708BF9042704707D711F5801F58BF48
:1037E00013F5801F19D499427047894270471CF520
:1037F000801F08D5BCF5801FF7D58B4218BF7047D6
:1038000008BF824270474FF4001C1CEB410F38BFC9
:103810001CEB430F01D28B42704770B500F0B2F839
:10382000922449004FF000514FF08053FFF70CBE37
:10383000DFF848C170B51CEA111E1EBF1CEA131543
:103840009EEA0C0F95EA0C0F00F06F8081EA0304EA
:1038500023EA4C134EEAD47E21EA4C1141F4801144
:1038600043F48013AE44A1FB024CA0FB0365AEF110
:103870007F7E361955EB0C05A1FB034C4CF1000380
:10388000A0FB021C16EB0C06654153F10003094234
:1038900018BF46F0010613F4007F0BD14FEA033145
:1038A0004FEA0530340341EA155140EA16506FF0F3
:1038B00003020AE04FEAC3214FEAC520F40241EABD
:1038C000555140EA56506FF0020202EB2E4201EBD6
:1038D000025585EACE710AD05FEA440C18BF24F085
:1038E000004450F1000041F1000120EAD47040F2A0
:1038F000FE7C624500D270BDA84214BF4FF08044E8
:103900004FF04044002E08BF0024BEF1806FA8BFD6
:10391000A1F1C041BDE8704080F282804FF000000C
:1039200001F1C04101F0004170479EEA0C0F0CEA22
:10393000131518BF95EA0C0F06D04FF0000081EA6E
:10394000030E0EF0004170BD00F01CF88900013E2E
:1039500000F007B800F009B84FEA430C5FEA5C5C7E
:1039600008D081EA030100F05BB84FEA410C5FEA3E
:103970005C5CF6D14FF00000014970470000FF0782
:103980000000F87F0EF1020E2EF0030E5EF8046BBD
:10399000364205D4012A43EB030515F5001F12D862
:1039A000012841EB010C1CF5001F0CD80ED14FEA89
:1039B000D17C15F5001F0CEB4C0C0CF1020C08BF70
:1039C0004CEBD37C04E04FF0080C01E04FEAD37CD1
:1039D0000CEB4C0526FA05F606F00706B6F1040CCA
:1039E00006D20EEB860CBDE870404CF0010C60472F
:1039F000DFE80CF0090B02024FF000414FF000002D
:103A0000A1F5002170BD19461046012851EB0104B3
:103A100018BFD4F5001484BF002001F0004170BD30
:103A20000808A0F500114FEA3101704791EA030F31
:103A300010B581F000413FF55FAC83F0004300F02A
:103A400009B8000010B591EA030F48BF83F00043A6
:103A50003FF552AC841A71EB030C07D212198CF0AB
:103A6000004C43EB0C03001B61EB0C01DFF8A4E1FD
:103A70004FEA1154A4EB135C1EEA430F18BF9EEAF1
:103A8000445F00F0B08023EA6E03524221EA045101
:103A9000C3EB6E0338BF5B1EDCF1200E25D322FA88
:103AA0000CFE10EB0E0043FA0CFE41EB0E01CCF1C4
:103AB000200E03FA0EFE10EB0E0051F10001CCF1C6
:103AC000200E29D412FA0EF201EB0451BDE8104089
:103AD00058BF7047401C1CBFB2F1004F7047002810
:103AE0000CBF491C20F00100704712EB020E43EBA3
:103AF000030218BF4FF0010E4EEA4202ACF1200C57
:103B0000DCF11E0E54D943FA0CFE10EB0E0051F1FD
:103B1000FF31CCF11E0ED5D50EF1010E12FA0EFEBC
:103B2000404141EB010101EB445C5FEA5C5C10D970
:103B300010EBDE7001EB045138BFBEF1004FBDE861
:103B4000104018BF704700280CBF491C20F001002E
:103B5000704730D24FEAD42C11F5001124F40064E0
:103B60001BD0B1FA81F20B3AA41AA41ED2F12003A1
:103B7000914030FA03F31943904001EBCC71002CD3
:103B800001EB0451BDE81040A8BF704701F1C041EE
:103B90004FF0000001F000417047B0FA80F310FAD6
:103BA00003F100D110BDE41A173C4805C90AE4E747
:103BB00001EB045110BD491001EB0451BDE8104068
:103BC0004FEA300002E04FF0000170474A0008BFA2
:103BD0000042F8D0B2F5001F28BF704701F0004145
:103BE0004FF0000070479EEA445F07D011EA5E0F75
:103BF000BDE8104004BF002100207047BDE8104020
:103C000070B5FFF7BFFE00BF40DFF63E83F0004116
:103C1000104670470000E0FF43004FEAD30C4FEA24
:103C20003C0C43401FBF40070CF1605113F0FE4FA6
:103C300070471CF0006F03D100200CF0004170476A
:103C40000CF0004343EA507010B540EACC0000F09D
:103C500046F900BF000000924FEA0001FFF7E0BE06
:103C60004FF000414FF00000A1F500217047000027
:103C700090EA010F48BF81F0004100F1B481421A7F
:103C80003CBF801A89184FEAD0524FF07F4C1CEA93
:103C9000410FA2EBD15318BF9CEA026F00F03B80AA
:103CA0004FF0004C4CEA00204CEA012121FA03FCC1
:103CB00010EB0C0C1ED202F1FF325FEA1C2040EB2D
:103CC000C25038BF70471CF07F0F4FEA400C18BF3E
:103CD000BCF17F4F38BF7047C3F12003994008BF44
:103CE00020F00100BCF17F4F38BF7047A0F1C04009
:103CF00000F03BB94FEA3C00000A40EBC25028BF3D
:103D00001CF0FF0F4FEA400CE6D018BFBCF17F4F0C
:103D100038BF7047EAE79CEA026F05D010EA5C0FF3
:103D200008BF00F00040704710B500F0D8F800BFA1
:103D300064FBBE3E401058BFC0F14040491058BF20
:103D4000C1F140418142EFF300807047B0FA80F347
:103D500010FA03F2C3F19D030AD0D90501EB12203A
:103D6000530638BF704700F1010008BF20F0010082
:103D70007047000050EA010C00F113801CF5000FA1
:103D800058BFBCF5000F01D48842704707D710F523
:103D9000000F58BF11F5000F15D4884270478942B3
:103DA00070471CF5000F04D5BCF5000FF7D5814214
:103DB00070474FF0807C1CEB400F38BF1CEB410F6D
:103DC00001D28142704710B500F089F89224490071
:103DD0004FF000504FF08051FFF7ACBF4FF47F0C15
:103DE0001CEAD0121EBF1CEAD11392EA0C0F93EA10
:103DF0000C0F00F0478090EA010F48BF42F4807238
:103E00004FF0004C4CEA00204CEA012102EB030287
:103E1000A0FB0113A2F50002002918BF43F0010323
:103E20005B0028BF4FEA330342EB22425FEA132CC8
:103E30004CEBC2502EBFBCEB436FB2F57C0F70470A
:103E40004FEA036CBCF1004F08BF20F00100B2F54F
:103E50007C0F38BF70470BD582F0FF0212F5803F10
:103E6000C8BF704700F1C040D8BF00F000407047A5
:103E700000F5000C5FEA4C0C48BF7047B0F1C04041
:103E800000F073B890EA010F0CEAD11348BF42F476
:103E90008072624538BF634504D280EA010000F0B9
:103EA0000040704710B500F01AF800BF8900013ECD
:103EB00000F007B800F009B85FEA410C5FEA1C6C3B
:103EC00008D080EA010000F050B85FEA400C5FEAD9
:103ED0001C6CF6D14FF00040A0F5800070470EF149
:103EE000020E2EF0030E5EF8044B244204D44FEA77
:103EF0004102B2F17F4F11D84FEA4003B3F17F4F37
:103F00000CD80ED14FEAD07CB2F17F4F0CEB4C0CA9
:103F10000CF1020C08BF4CEBD17C04E04FF0080C14
:103F200001E04FEAD17C0CEB4C0324FA03F404F0DB
:103F30000704B4F1040C06D20EEB840CBDE810406B
:103F40004CF0010C6047DFE80CF0070802024FF06C
:103F50000040A0F5800010BD0846420018BFD2F115
:103F6000807288BF00F0004010BDFF2141EAD050B0
:103F7000C005704751EA000C00F113801CF5000FDA
:103F800058BFBCF5000F01D48142704707D711F527
:103F9000000F58BF10F5000F15D4814270478942B9
:103FA00070471CF5000F04D5BCF5000FF7D588420B
:103FB00070474FF0807C1CEB410F38BF1CEB400F6B
:103FC00001D28842704780EA010081EA000180EA5C
:103FD0000100FFF7F8BE000090EA010F48BF81F032
:103FE00000413FF54CAE421A04D882F00042A0EBEB
:103FF000020011444FEAD0524FF07F4C1CEA410FAF
:10400000A2EBD15318BF9CEA026F4AD04FF0004C8C
:104010004CEA00204CEA012121FA03FCB0EB0C0C25
:104020000FD412F0FE0F36D05FEA4C001DD50012FF
:1040300040EBC25038BF70471CF03F0F18BF7047AD
:104040000BE0A2F101025FEA1C2040EBC25038BF36
:1040500070471CF07F0F18BF7047C3F120039940D1
:1040600014BF401E20F00100704780084FEA122361
:1040700008BF7047B0FA80FCA2EB0C02CCF1280C10
:1040800060FA0CF093EA122F04BF00EBC2507047A5
:104090004FEAC3707047130A5FEADC1008BF70472D
:1040A000F6E79CEA026F04D010EA5C0F08BF00201C
:1040B000704710B5FFF713FF40DFF63E81F0004078
:1040C0007047FCF73EBB0CF00F03092B08BF08201C
:1040D00000F059800A2B0BD0082B18BF704708BF7F
:1040E0001CF0400F0AD04FF000004FF00001704765
:1040F0001CF0400F18BF4FF0004070471CF0100F2D
:1041000008D020F0704300F07F4242EAD3014FEA2A
:104110004370704700F0604021F07F4242EA0002A5
:1041200001F07F4040EA727070474FF0FF0C4CF492
:10413000E06C1CEA11531CBF9CEA030C9445C2BFFF
:10414000DA4201EB02517047002B0DD0BCF1000F99
:104150000FD0002A01F00041A4BF41F0E04141F03E
:104160007F614FF00000704701F000414FF0000008
:10417000704750EA01334FF09B0C18BF4CF0806C35
:104180007FF45AA970471CF4801F11D01CF4E02F53
:1041900003D06FEACC31490070474FF04050EFF345
:1041A000008222F0704242EA000282F300887047E7
:1041B0004FF000007047000004FA97999999D93F91
:1041C000AF788E1DC571CC3F9FC678D0099AC33F8A
:1041D000935555555555E53F599322942449D23F5F
:1041E000DE03CB966446C73F44523EDF12F1C23F26
:1041F00002400000000000A0000000000540000098
:10420000000000C8000000000C4000000000409CBE
:1042100000000000194000000020BCBE00000000AB
:1042200034400000BFC91B8E00000004B5400000F0
:10423000504BCFD06607E2CF010000006C41000078
:104240003E8251AADFEEA73401000000D9420000EF
:10425000DCB5A0E23A301F97FFFFFFFFB445000036
:10426000FD25A0C8E9A3C14FFFFFFFFFFF3F0000EE
:104270000000008000000000FF3F00000000008000
:10428000000000000000000000000000000000002E
:10429000CC420008000000202C000000C4010008EF
:1042A000F84200082C0000206C0A0000E001000821
:1042B0001C00000043000000F8FFFFFF0C0000009E
:1042C0000E0000000F0000002E00000000000000A3
:1042D00000000000007A030A000000000000000057
:1042E000010203040607080900000000010203049C
:0842F00001020304060708099E
:040000050800018965
:00000001FF
