:020000040800F2
:10000000980A00203D020008B31A0008AB1A000845
:10001000AF1A0008B5190008AB2000080000000066
:10002000000000000000000000000000AD1C0008FF
:10003000B919000800000000411B0008C51D000898
:10004000570200085702000857020008570200082C
:10005000570200085702000857020008570200081C
:10006000570200085702000857020008570200080C
:1000700057020008570200085702000857020008FC
:1000800057020008570200085702000857020008EC
:1000900057020008570200085702000857020008DC
:1000A00057020008570200085702000857020008CC
:1000B00057020008570200085702000857020008BC
:1000C00057020008570200085702000857020008AC
:1000D00057020008F11E00085702000857020008E6
:1000E000570200085702000857020008570200088C
:1000F000570200085702000857020008570200087C
:10010000570200085702000857020008570200086B
:10011000570200085702000857020008570200085B
:10012000570200085702000857020008570200084B
:10013000570200085702000857020008570200083B
:10014000570200085702000857020008570200082B
:10015000570200085702000857020008570200081B
:10016000570200085702000857020008570200080B
:1001700057020008570200085702000857020008FB
:10018000570200085702000800F002F800F047F894
:100190000AA090E8000C82448344AAF10107DA45E2
:1001A00001D100F03CF8AFF2090EBAE80F0013F0ED
:1001B000010F18BFFB1A43F0010318476C3500000C
:1001C0008C350000103A24BF78C878C1FAD852079D
:1001D00024BF30C830C144BF04680C6070470000C1
:1001E0000023002400250026103A28BF78C1FBD840
:1001F000520728BF30C148BF0B607047662903F023
:100200005681002070471FB500F022FB040000203B
:10021000002102F017FAE0601FBD10B510BD00F01C
:1002200033FC1146FFF7EFFF02F0F2F900F051FC4A
:1002300003B4FFF7F2FF03BC01F0BAFF094880479F
:1002400009480047FEE7FEE7FEE7FEE7FEE7FEE7B8
:10025000FEE7FEE7FEE7FEE704480549054A064BD0
:1002600070470000C91D000889010008980400209B
:10027000980A002098060020980600207047000089
:100280000FB4044910B503AA029800F0CFFA10BCCD
:100290005DF814FB0000002070B504468569006815
:1002A000C10601D5302600E02026C00707D070BD6A
:1002B000D4E9012130469047206A401C20626D1E1F
:1002C000F6D570BD70B5044685690078C00707D1C2
:1002D00070BDD4E9012120209047206A401C206293
:1002E0006D1EF6D570BD2DE9F0474FF0000A894626
:1002F0000446C0F820A02046E1688847002876D050
:10030000252806D0D4E901219047206A401C2062AC
:10031000F1E7E168204600258847C4F81CA006469E
:100320000027C4F818A02A2E09D0304601F039FF62
:1003300038B304EB8708303EC8F8186019E059F864
:10034000041B204604EB87029161E1688847012F76
:10035000064618D1E069002820DA25F020051DE0C6
:10036000D8F8180000EB800006EB40003038C8F8E1
:1003700018002046E1688847064601F012FF002871
:10038000EED1012F0AD02E2E08D12046E1688847F1
:100390007F1C0646022F45F02005C4DBA06900281B
:1003A00003DA404245F00105A061E80701D025F0DD
:1003B0001005B6B1A6F14100192802D8203645F43F
:1003C00000654A463146204625604D46FFF716FF38
:1003D00058B1012806D0ED1D25F0070000F10809ED
:1003E00089E704E005F1040985E730468AE7206AD9
:1003F000BDE8F087704770477047704710B500F050
:100400002BFA006810BD10B5044600F025FA046010
:1004100010BD70472DE9FF4F0C461E464FF0FF37C9
:100420008BB0D2E90001DDF860800A908A46C1F302
:100430000A5505B93D46002108464FF00000BAF1C3
:10044000000F00F4400005DA00EB80004FF440019B
:1004500001EA50004FEA9059B9F1010F00DDB946A9
:100460000A9850EA4A000ED044F61050A5F2FF3523
:1004700045432F14B8F1000F1ED07542291E1EDD12
:10048000C9F100021CE0B8F1010F4FF0000001D0EB
:10049000302103E0F24305E02154401CB042FBDB75
:1004A00030460022002121540B99C1F80880C1E98F
:1004B00000200FB0BDE8F08FBD1B6D1CDEE74A4683
:1004C00000DA694206A800F069FA06AB93E8070073
:1004D00003AB83E8070050460A9900F043FB8DE820
:1004E0000700A0F500501F3800900398002D09DD8B
:1004F00042F21F014A46084403A90390684600F0EF
:10050000A2FD08E0A0F500504A461F3803A9039059
:10051000684600F0ACFD8DE807000004000C03D035
:100520004FF0FF30410800E01046B8F1000F03D053
:100530000022009215461EE0751E05D400F090F9C9
:10054000303262556D1EF9D5B3460122084302D000
:1005500000227F1C04E02078302801D100227F1E79
:10056000002A099786D01DE0112D07DA00F078F9EE
:10057000303262556D1C50EA0102F5D1084302D0B9
:100580000098C8B10EE00021681E05E0235C625CA3
:1005900063542254401E491C8142F7DBAB46A81B22
:1005A000401E0990002004F80B000B98099AC0F82F
:1005B0000880C0E9002B7CE711264FF0000859E7BE
:1005C0002DE9F04F88460446D21D22F0070191B074
:1005D000D1E90001CDE90A0101F069FD02460B985D
:1005E000C00F01D02D2007E02068810701D52B2006
:1005F00002E0202101EAC000032A099001D0072A65
:1006000005DB03464146204600F088F90BE12078DF
:10061000800601D5E06900E00620B8F1650F81464B
:1006200006D0B8F1660F18D0B8F1670F70D131E07D
:100630000020B9F1110F009001DB112301E009F155
:1006400001030AAA01A90CA8FFF7E4FEDDE90C707A
:10065000002609F10105834647E001204B46009042
:100660004FF000470AAA01A90CA8FFF7D3FEDDE965
:100670000DB00C995D46002610B909F101000D1866
:10068000B9EB050003D4C0F1FF3609F10105A5EB74
:1006900009002BE0B9F1010F01DA4FF00109002048
:1006A000B9F1110F0090484601DD112300E0034627
:1006B0000AAA01A90CA8FFF7ADFEDDE90C704D46B2
:1006C00000268346207800070AD4AB4500DA5D4651
:1006D00001A8012D04DD411911F8011C302907D0B2
:1006E0004F4502DA17F1040F04DA012082460FE0C9
:1006F0006D1EEEE7002F02DCED1B3E4403E0781C8C
:10070000A84200DD7D1CB81B00F1010A4FF0004734
:100710002078000703D4AA4501DB4FF0FF3A0021FF
:10072000B7F1004F0DF143088DF8431024D002209B
:100730002B23002F01DA7F422D230A21021EA0F174
:10074000010000DC5FB197FBF1FC97FBF1F201FBCC
:100750001C7C17460CF1300C08F801CDEEE7A8F12F
:10076000010003702188090501D5452100E06521BC
:10077000A0F1010800F8011C09980FA9A1EB0807D6
:10078000FF1D00B10120411901EBEA70A169384455
:10079000081A401EA0612078C00602D42046FFF748
:1007A0007BFD099828B1D4E901219047206A401CBB
:1007B00020622078C00622D52046FFF76DFD1EE09E
:1007C000002E04DBB34502DD01A8805D00E030208F
:1007D000D4E901219047206A401C2062761CAAF1CE
:1007E00001005FEA000A0AD100F032F8C06801682F
:1007F000405CD4E901219047206A401C2062281EF9
:10080000A5F10105DCDC07E0D4E9012118F8010BB2
:100810009047206A401C2062381EA7F10107F3DCD4
:100820002046FFF74FFD032011B043E6074B70B59C
:100830000D467B4400F05FF80446284600F01CF9A2
:1008400010B14FF0FF3070BD204670BD7F19000021
:1008500000487047540400200048704734040020CA
:1008600030B5B0F10A024FEA900E71F100034EEA82
:10087000817EB0EB0E0061EB91014FEA101E4EEA53
:10088000017E10EB0E0041EB11114FEA102E4EEAE3
:10089000016E10EB0E0041EB11214FEA104E4EEAB3
:1008A000014E10EB0E0041EB1141401841F10001E7
:1008B0004FEAD00040EA41704FEAD10110EB8005C9
:1008C0004FEA810444EA907444EB01046D1944EB4F
:1008D0000404521BA3414FF0000348BF0A3200D565
:1008E00030BD401C41F1000130BD000001694A1CCF
:1008F00002610878704700B58FB0CDE90131002161
:10090000059105497944CDE9031011466846FFF782
:10091000EAFC0FB000BD0000E5FFFFFF2DE9F0414C
:100920001F46044603260168072A01F4006004DB21
:1009300008B116A505E016A503E008B115A500E06D
:1009400015A521F010002060A069C01EA0610FB1A4
:10095000401EA0612046FFF79FFC4FB1D4E9012162
:1009600038469047206A401C2062C01C206206E086
:10097000206AFAE7D4E9012115F8010B9047761EA9
:10098000F8D22046FFF79EFCBDE8F0814E414E00B4
:100990006E616E00494E4600696E66002DE9F047B3
:1009A000814616468AB0334878440DC88DE80D005C
:1009B00030487844801C03AC0DC884E80D0041F633
:1009C0009B300844372190FBF1F290FBF1F5A5F143
:1009D000800501FB12041B3C02D56442012000E0AB
:1009E0000020DFF890A080460027FA44AAF1BE0A52
:1009F0000DE0E00709D03246684607EB47010AEBF5
:100A0000810100F034FB8DE8070064107F1C002C8E
:100A1000EFD1184F7F44AC3F18E0E80714D007EB44
:100A200004100DF1180A90E80E008AE80E00C06864
:100A3000F04201D198190890324606A903A800F0A7
:100A400016FB03AB83E807006D10641C002DE4D196
:100A500032466946B8F1000F03A802D000F0F3FA5D
:100A600001E000F004FBC9E90001C9F808200AB060
:100A7000BDE8F087B02C0000007B00F080007047DC
:100A800000487047340400207546FFF7F9FFAE4672
:100A900005006946534620F00700854618B020B58A
:100AA000FFF7DAFBBDE820404FF000064FF00007EB
:100AB0004FF000084FF0000B21F00701AC46ACE806
:100AC000C009ACE8C009ACE8C009ACE8C0098D4673
:100AD000704710B50446AFF300802046BDE81040D3
:100AE000FFF7A6BB4FF0013C50F8042B51F8043B34
:100AF0009A4221D1A2EB0C03934313EACC1317D1F2
:100B000050F8042B51F8043B9A4215D1A2EB0C0388
:100B1000934313EACC130BD150F8042B51F8043B48
:100B20009A4209D1A2EB0C03934313EACC13DBD016
:100B30004FF00000704700BFD01A01BAB1FA81F13E
:100B400001F0180122FA01F0CB40C1F12001DBB223
:100B5000C0B2C01A2CFA01F3D11A914311EAC311A1
:100B6000E6D170475FEA400C08BF91F0000F4FEAF2
:100B70008C234FEAC12243EA51514FEA1C5018BF5F
:100B800000F5F0404FEA300018BF41F000415FEA45
:100B90006C5C00F02980BCF1FF3F08BF40F0804052
:100BA0007047130C06BF12044FF0100C4FF0000CEE
:100BB000130E04BF12020CF1080C130F04BF120134
:100BC0000CF1040C930F04BF92000CF1020CD30F34
:100BD00004BF52000CF1010C11464FF00002A0F1CD
:100BE0001F00A0EB0C00704711F0004F08BF7047CA
:100BF00031F000413FF4D5AF0B0C06BF09044FF0B4
:100C0000100C4FF0000C0B0E04BF09020CF1080C85
:100C10000B0F04BF09010CF1040C8B0F04BF8900FA
:100C20000CF1020CCB0F04BF49000CF1010CCCF10C
:100C30002003A0EB0C0022FA03F302FA0CF241EAC3
:100C4000030100F10100704720F07F4C80EA0300AF
:100C500023F07F47ACEB070303F57C5300F0004023
:100C600003F1FF032DE980494FEA154B09B44FEA20
:100C7000144325EA0B4E24EA03480FF2042606EB40
:100C8000132749083E785FEA320203FB0667C7F57F
:100C9000000707FB06F64FEA54374FEAD64606F13F
:100CA000020607FB066CCCF1005C4FEA1C472CEAFD
:100CB000074C07FB06F40CFB06F504EB15464FEA60
:100CC000961634BF00204FF000404FEAD13706FBA4
:100CD00007FC4FEA1C4C0CFB0BF7D21B03FB0CF779
:100CE00061EB07010CFB0EF7B0EB074072EB17420C
:100CF0000CFB08F734BFA2EB0742B2EB074261EBF3
:100D000017414FEA0C444FEA910706FB07FC4FEAF4
:100D10001C4C0CFB0BF7B0EBC74072EB573203FBDC
:100D20000CF734BFA2EBC742B2EBC74261EB5731BD
:100D30000CFB0EF7B0EBC70072EB57720CFB08F719
:100D400034BFA2EBC702B2EBC70261EB5771039F3E
:100D50004FEA816141EA921104EBCC044FEAD137AA
:100D60004FEA826206FB07FC42EA90124FEA80607B
:100D70004FEA1C4C0CFB0BF7D21B03FB0CF761EB8F
:100D800007010CFB0EF7B0EB074072EB17420CFBB0
:100D900008F734BFA2EB0742B2EB074261EB174101
:100DA0004FEA8C554FEA910704EB9C2406FB07FCA5
:100DB0004FEA1C4C0CFB0BF7B0EBC74072EB573201
:100DC00003FB0CF734BFA2EBC742B2EBC74261EBA7
:100DD00057310CFB0EF7B0EBC70072EB57720CFBF0
:100DE00008F734BFA2EBC702B2EBC70261EB577141
:100DF00015EB4C254FEA816141EA92114FEA82627C
:100E00004FEAD13742EA901206FB07FC44F1000496
:100E10004FEA80604FEA1C4C0CFB0BF7D21B03FB24
:100E20000CF761EB07010CFB0EF7B0EB074072EB20
:100E300017420CFB08F734BFA2EB0742B2EB0742A4
:100E400061EB174115EB1C154FEA813141EA9241E4
:100E50004FEA823242EA90424FEA80304FEA0C7603
:100E600044F1000448EA03434EEA0B484FF0000EF9
:100E7000B2EB080C71EB030724BF624639464EEB18
:100E80000E0E4FF0000B0018524149414BEB0B0B7B
:100E9000B2EB080C71EB03077BF1000B24BF624639
:100EA00039464EEB0E0E4FF0000B001852414941EF
:100EB0004BEB0B0BB2EB080C71EB03077BF1000B58
:100EC00024BF624639464EEB0E0E51EA020718BFA8
:100ED00046F0010616EB0E7655F1000254F10001C2
:100EE00003D5BDE88901BDE80088BDE88901BDE8FA
:100EF0000048B619524141EB0101A3F101037047CB
:100F000080807F7E7D7C7B7A797877767675747346
:100F1000727171706F6E6E6D6C6C6B6A6A69686805
:100F2000676666656464636362616160605F5F5E9B
:100F30005E5D5D5C5C5B5B5A5A5959585857575611
:100F40005655555554545353525252515150505076
:100F50004F4F4F4E4E4D4D4D4C4C4C4B4B4B4A4AC8
:100F60004A4949494848484747474746464645450C
:100F70004544444444434343434242424241414145
:100F8000002B26D4770021D01CB54FEA370703B4D5
:100F90004FF010004FF010014FF000000FBCBDE803
:100FA00010400BF1010BBBF1010F08BF5FEA1707FF
:100FB00022BF12F1010211F101014FF0004143F192
:100FC000000300F0004043EA00007047F9D35708DF
:100FD000DAE746EA064613F1400F4FEA16461FDDF0
:100FE00013F1200FDFBF16430A46002120335B4276
:100FF000C8D0C3F1200746EA064602FA07F74FEACF
:10100000164646EA0706C3F1200722FA03F201FA60
:1010100007F721FA03F14FF0000342EA0702B1E7B4
:1010200046EA020646EA06464FEA164646EA010640
:10103000BCBF46EA0646360C4FF000034FF00002F4
:101040004FF000019EE72DE9C048934630B491E887
:10105000380007C831EA400C48BF34EA430C03D5D6
:10106000FFF7F2FDFFF78CFFF0BCBDE800882DE92B
:10107000C048934630B491E8380007C810F0804F5C
:1010800008BF13F0804F03D100F005F8FFF778FF99
:10109000F0BCBDE8008820F07F4780EA030023F021
:1010A0007F4C07EB0C03A3F57C5300F00040A3F149
:1010B000FE0392F0000F00F0B38095F0000F00F0F7
:1010C00077802DE901494FEA11404FEA144621EAA1
:1010D000004800FB06FC24EA064708FB06F607FB6F
:1010E00008F800FB07F718EB06484CEB164C4FEAE4
:1010F000124B18EB07484FEA15464CEB174022EA13
:101100000B4E0BFB06FC25EA06470EFB06F607FB1B
:101110000EFE0BFB07F71EEB064E4CEB164C4FF08A
:1011200000061EEB074E4CEB174B18EB0B0840F17B
:10113000000018EB0E0B58EB000840F100008F1A6E
:101140004FF000013CBFC943661B14BFB5EB040C54
:1011500000213CBFC943F61B4FEA17444EEA8E0EEE
:1011600027EA04454FEA1C4704FB07622CEA074CB8
:1011700005FB07F70CFB05F604FB0CFC16EB07461A
:1011800042EB174216EB0C4642EB1C421BEB0606E9
:1011900058EB0202414146EA9E0601D5BDE80189AD
:1011A000B619524141EB0101A3F10103BDE80189E8
:1011B0004FEA14454FEA114724EA054621EA074C55
:1011C00005FB07F406FB07F70CFB06F105FB0CFC1F
:1011D00011EB074144EB17444FEA124711EB0C4166
:1011E00044EB1C4422EA074C05FB07F206FB07F719
:1011F0000CFB06F605FB0CFC16EB074642EB174210
:1012000016EB0C4642EB1C456A1854F1000148BF2E
:101210007047B619524141EB0101A3F10103704738
:1012200095F0000F37D04FEA11424FEA144721EAF8
:10123000024624EA074C02FB07F106FB07F70CFB0A
:1012400006F402FB0CFC14EB074441EB17414FEA98
:10125000154714EB0C4441EB1C4125EA074C02FBFB
:1012600007F506FB07F70CFB06F602FB0CFC16EB7A
:10127000074645EB174516EB0C4645EB1C42121989
:1012800051F1000148BF7047B619524141EB0101CD
:10129000A3F1010370474FEA14454FEA114724EACE
:1012A000054621EA074C05FB07F106FB07F70CFB97
:1012B00006F24FF0000605FB0CFC12EB074241EB77
:1012C000174112EB0C4251EB1C4148BF704792187A
:1012D00041EB0101A3F10103704700001CB501219E
:1012E000084600F04FFC072209210D4800F0ADFB35
:1012F00007220A210A4800F0A8FB4FF4C0600090C2
:1013000002208DF804008DF8050000208DF80600FD
:1013100001208DF807006946014800F04EFB1CBD16
:101320000000024010B50446204600F017F8FFF711
:10133000D5FF00F001F810BD08B525208DF800009C
:101340000C208DF8010000208DF8020001208DF89E
:101350000300684600F0AEFB08BD00001FB5044660
:101360000121102000F01EFC00940020ADF80400C4
:10137000ADF80600ADF80800ADF80C000C20ADF893
:101380000A006946064800F021FE012240F225517C
:10139000034800F0F5FD0121014800F0BBFD1FBD31
:1013A0000010014010B56FF0040000F0F7FC0A488F
:1013B00000680A49B0FBF1F0094908700846007856
:1013C00000EB4001C1EBC0104FF6FF7101EAC00015
:1013D0000449088010BD00000800002000127A00B7
:1013E000040000200600002070B504464FF407708A
:1013F00094FBF0F0C6B24FF4077094FBF0F100FBE1
:10140000114085B205E04FF4077000F009F8701E36
:10141000C6B2002EF7D115B1284600F001F870BD14
:101420000146114A12884A434FF0E0235A610022D4
:101430009A611A46126942F001021A6100BF4FF028
:10144000E022106900F001021AB100F48032002A93
:10145000F5D04FF0E022126922F001024FF0E023B4
:101460001A6100229A617047060000202DE9F04FB2
:101470008BB083460C46204601F0C4FD074601F0C0
:1014800055F8054600224FF0804301F0D1FCCDE92C
:101490000401584601F0B6FD0746254A254B01F0E8
:1014A00019F905460E46584601F0ACFD07460022E4
:1014B000214B01F0B3FB2A463346CDE9000101F090
:1014C000C5F981461D4A1E4B01F004F9CDE9020120
:1014D000DDE9042301F0FEF8CDE9060101F0C8F8CA
:1014E0000990099801F08EFD0546164A164B01F049
:1014F0009FFC81468A46099801F084FD07460F4A01
:101500000F4B01F089FC0546094A0A4B01F086FBA6
:101510004A465346CDE9040101F098F9CDE90601A8
:1015200001F0A6F8089008980BB0BDE8F08F000015
:101530009A99999999A96D4000001E4085B185201E
:101540000725E53F185B0872505220402DE9FF4FF8
:101550008BB00C4615461E4635480A903548099012
:101560003548089035480790354806903148059031
:10157000344804900B9801F0DFFD80462D4901F0BE
:1015800023FE07462A4901F069FD8246204601F004
:10159000D3FD0290204601F0CFFD2949019001F0D2
:1015A00013FE8346029901F00FFE0746204601F024
:1015B000C3FD2249029001F007FE83461E4901F057
:1015C0004DFD8046394601F049FD0390204601F06B
:1015D000B3FD1C49019001F0F7FD8346154901F068
:1015E0003DFD80461849504601F0ECFE4146029010
:1015F00001F0EAFD0746039901F030FD81461349E9
:10160000484601F0ADFE01D2DFF84090484601F0B7
:10161000F9FC07460E4A0F4B01F0C4FA01D2DFF87D
:101620003890C6F80090C5F800A00FB0BDE8F08F64
:10163000CDCC1EC20AD7233CC5FE02C0BD52163D0A
:10164000F624D6B5ACC5A7380000C8410000C84292
:101650009A9999999999B93FCDCCCC3D10B500F0A4
:1016600039F84FF400410F4800F01DFA4FF40061C3
:101670000D4800F016FA00240FE04FF400610A480C
:1016800000F011FA00F03EF84FF40061064800F057
:1016900008FA00F037F8601CC4B2092CEDDB00F04A
:1016A00009F910BD00180240001402401CB54FF4A7
:1016B0000040009003208DF8050000208DF8040004
:1016C0008DF807006946024800F077F91CBD00005C
:1016D000001802401CB54FF40040009003208DF824
:1016E000050001208DF8040000208DF8060001207F
:1016F0008DF807006946024800F05FF91CBD000044
:101700000018024008B540F2DC50009004E0BDF83B
:101710000000401E80B20090BDF800000028F6DCFA
:1017200008BD00001CB50121602000F02BFA4FF429
:101730000040009003208DF8050001208DF8040082
:1017400000208DF8060001208DF8070069460C483E
:1017500000F033F94FF40060009003208DF805008D
:1017600001208DF8040000208DF8060001208DF87E
:1017700007006946034800F020F9FFF76FFF1CBD22
:1017800000180240001402402DE9F04706460F46BB
:1017900090460024A146A24600F08CF8B8F1000F54
:1017A00003D0B8F1010F0CD105E0032000F0BEF822
:1017B0002044C4B206E0052000F0B8F82044C4B2CA
:1017C00000E000BF00BFFFF771FF002507E04FF406
:1017D0000041124800F05CF900B903E06D1C1048AC
:1017E0008542F4D300BF4FF400410C4800F050F99B
:1017F000012801D1601CC4B2012000F013F8814619
:10180000012000F00FF88246002000F00BF838703D
:101810004AEA092030802046BDE8F08700180240DF
:1018200000A24A0470B505460026FFF73FFF80245A
:1018300019E0FFF767FF4FF400611C4800F033F92F
:10184000FFF760FF4FF40041194800F021F900B1A3
:1018500026434FF40061154800F023F9204604EBBD
:10186000D071C1F34704002CE3DCFFF733FF2DB147
:101870004FF400410E4800F014F904E04FF4004129
:101880000B4800F010F9FFF73DFF4FF400610748E7
:1018900000F009F9FFF736FF4FF40061034800F04C
:1018A00000F9FFF72FFF304670BD00000014024022
:1018B0000018024010B5FFF70DFF4FF40041194822
:1018C00000F0F1F84FF40061174800F0EAF8FFF774
:1018D00019FF4FF40061144800F0E5F8FFF712FF1C
:1018E0004FF400410F4800F0DCF8FFF70BFF4FF416
:1018F00000610D4800F0D5F8FFF704FF4FF40061D8
:10190000094800F0D0F8FFF7FDFE4FF4004105480C
:1019100000F0C9F8FFF7F6FE4FF40061024800F04E
:10192000C0F810BD001802400014024070B5054612
:101930000026FFF7CFFE802422E004EA050028B14C
:101940004FF40041194800F0AEF804E04FF40041B4
:10195000164800F0A6F8FFF7D5FE4FF400611448D2
:1019600000F0A1F8FFF7CEFE4FF40061104800F040
:1019700098F8FFF7C7FE204604EBD071C1F3470487
:10198000002CDADCFFF792FE4FF40061084800F00B
:101990008AF84FF40041054800F07AF806464FF403
:1019A0000061034800F07DF8304670BD0018024029
:1019B0000014024000BFFEE77047F0B50A46002160
:1019C0000023002400BF3DE0012505FA01F315685E
:1019D00005EA03049C4234D105684F000326BE404B
:1019E000B543056015794E00B5400668354305607E
:1019F0001579012D02D01579022D16D185684F0079
:101A00000326BE40B543856055794E00B5408668D3
:101A100035438560456801268E40B543456045687D
:101A200096798E40B6B235434560C5684F000326AF
:101A3000BE40B543C560D5794E00B540C668354354
:101A4000C560491C1029BFD3F0BDF0B500230024A8
:101A50004D07ED0E02FA05F3CE1000F1200555F802
:101A600026504E07F70E0F26BE40B543CF1000F1AB
:101A7000200646F82750CE1000F1200555F82650D4
:101A800045EA0304CE1000F1200545F82640F0BDDC
:101A90000246002013690B400BB1012000E000203A
:101AA0007047418370470183704700BFFEE700BF66
:101AB000FEE7704770B5002100230F22C4781CB3E5
:101AC000174C246804F4E064C4F5E064C4F307210F
:101AD000C1F10404E3B20A4144789C40E1B2847845
:101AE000144021430C07210E0E4C057861550478F3
:101AF00004F01F050124AC4005786D11AD0005F11F
:101B0000E025C5F8004109E0047804F01F05012430
:101B1000AC40054D0678761145F8264070BD0000B2
:101B20000CED00E000E400E080E100E00249014348
:101B3000024A1160704700000000FA050CED00E059
:101B40007047000001460E488088B0F5806F01D1D3
:101B5000012070470A484288801D8154821F5288A4
:101B6000501CC21700EB92529212A0EB8222044B3F
:101B70005A8018468088401C1A4690800020E8E76A
:101B80002C00002029B1064A12680243044B1A6057
:101B900004E0034A12688243014B1A607047000058
:101BA0003038024029B1064A12680243044B1A60D9
:101BB00004E0034A12688243014B1A607047000038
:101BC00044380240F0B500210022002402250026FE
:101BD0000223324F3F6807F00C0121B1042905D0E0
:101BE000082937D105E02E4F076036E02D4F0760FA
:101BF00033E02A4F3F1F3F68C7F38056274F3F1FF0
:101C00003F6807F03F036EB1264FB7FBF3F7DFF8ED
:101C10008CC0ACF1040CDCF800C0CCF3881C07FBD2
:101C20000CF40CE01E4FB7FBF3F7DFF870C0ACF11B
:101C3000040CDCF800C0CCF3881C07FB0CF4174F35
:101C40003F1F3F68C7F301477F1C7D00B4FBF5F7DA
:101C5000076002E0124F076000BF00BF0F4F3F68F0
:101C600007F0F0010909104F7A5C0768D740476018
:101C70000A4F3F6807F4E051890A0B4F7A5C4768C6
:101C8000D7408760054F3F6807F46041490B064F16
:101C90007A5C4768D740C760F0BD00000838024052
:101CA0000024F40000127A001C000020704700009D
:101CB0000CB50020019000903448006840F480305A
:101CC0003249086000BF3148006800F400300090DD
:101CD0000198401C0190009818B90198B0F5A04FE8
:101CE000F1D12A48006800F4003010B101200090C2
:101CF00001E0002000900098012846D123484030A0
:101D0000006840F080502149403108602048006858
:101D100040F440401E4908601C48083000681B49D8
:101D2000083108600846006840F400400860084632
:101D3000006840F4A05008601648091F0860081F9A
:101D4000006840F08070091F086000BF0F480068FD
:101D500000F000700028F9D040F205700E490860CC
:101D60000A480830006820F003000849083108607C
:101D70000846006840F00200086000BF03480830D1
:101D8000006800F00C000828F8D10CBD00380240B3
:101D90000070004008544007003C0240042808D16D
:101DA0004FF0E021096941F004014FF0E022116198
:101DB00007E04FF0E021096921F004014FF0E02233
:101DC000116170477047000010B51248006840F07C
:101DD00001001049086000200E49083108600D48D4
:101DE00000680D4908400B4908600C48091D08604F
:101DF000081F006820F48020091F086000200549A2
:101E00000C310860FFF754FF4FF000600449086090
:101E100010BD000000380240FFFFF6FE1030002425
:101E200008ED00E08AB04FF0000A0020079006900D
:101E3000059083463DE0002207A908A8FFF7A4FC0F
:101E4000504400F0FF0A012207A909A8FFF79CFCF3
:101E5000504400F0FF0ABAF1000F02D0FFF7FEFB7A
:101E60000CE006AB05AABDF82410BDF82000FFF772
:101E70006DFBDDE90501FFF7F9FA8346584601F0ED
:101E8000C1F804460D46069801F0BCF806460F4618
:101E9000059801F0B7F8804642460B4605A0CDE90B
:101EA0000067CDE90245FEF7EBF94FF47A70FFF7D2
:101EB0009BFAC0E7B5B1C7B0BBB7BEB3CEC2B6C818
:101EC000CEAA3A25322E3166A1E6A3ACCAAAB6C87C
:101ED000CEAA3A25322E31662525A3ACC2B6B5E38B
:101EE000CEC2B6C8CEAA25322E3166A1E60D0A00B2
:101EF00010B540F22551064800F018F830B10448FA
:101F000000F0CEF80446E0B2FFF71CFE10BD000062
:101F10000010014021B1828942F40052828104E024
:101F200082894DF6FF731A408281704770B5024670
:101F3000002400230025002040F66A16B14200D19B
:101F400000BFC1F3421501F01F03012606FA03F397
:101F5000012D02D19689334006E0022D02D1168A66
:101F6000334001E0968A33400C12012606FA04F44D
:101F70001688344013B10CB1012000E0002070BD80
:101F8000F0B50346002400260025002040F66A171D
:101F9000B94200D100BF1846C1F3421401F01F0638
:101FA000012707FA06F5012C01D10C3004E0022CC0
:101FB00001D1103000E014301AB107682F430760D8
:101FC00002E00768AF430760F0BD00002DE9FF475E
:101FD00005460E460024A14600BFA046B08900B1C8
:101FE00000BF2C8A24F44054F08804432C82AC892E
:101FF00041F20C608443B0883189084371890843F9
:102000000443AC81AC8A24F44074B0890443AC82AC
:102010006846FFF7D7FD2048854202D01F48854219
:1020200002D1DDF80C9001E0DDF80890A88900F4F9
:10203000004040B109EBC90000EB091031684900CC
:10204000B0FBF1F707E009EBC90000EB09103168BC
:102050008900B0FBF1F76420B7FBF0F00401200920
:10206000642101FB1078A88900F4004040B13220BF
:1020700000EBC800B0FBF1F000F00700044308E0FB
:10208000322000EB08106421B0FBF1F000F00F00EB
:1020900004432C81BDE8FF8700100140001401407B
:1020A00001468888C0F30800704700BFFEE749007A
:1020B00050EAC12018BF04204A0D18BF40F00100AB
:1020C00040F2FF72B2EB515F08BF40F002000128FE
:1020D00008BF052070472DE9F0414F1E00EBC701F6
:1020E0000446D1E9000115461E4637F006020DD020
:1020F0002A46334600F092FD7F1E04EBC703D3E966
:10210000002300F0E7FA37F00602F1D1022F25D0C4
:10211000042F13D0062F18BFBDE8F0812A4633469E
:1021200000F07CFDD4E90A2300F0D4FA2A463346B5
:1021300000F074FDD4E9082300F0CCFA2A463346B7
:1021400000F06CFDD4E9062300F0C4FA2A463346B9
:1021500000F064FDD4E9042300F0BCFA2A463346BB
:1021600000F05CFDD4E9022300F0B4FA2A463346BD
:1021700000F054FDD4E90023BDE8F04100F0AABA14
:10218000002213461046014900F060BB0000F03FFA
:10219000012201F0C0B9002213461046114600F09A
:1021A00055BB30380A2801D2012070470020704703
:1021B00000BF704700BF054A128802F04002002AA3
:1021C000F9D0C0F30802014B9A807047001001401B
:1021D0002DE9F04DC84A002490B0914205DA21F073
:1021E0000043934201D805D120B110B0BDE8F04DB5
:1021F000FFF7CEBFB1F5801F1BDA53EA000209D00A
:10220000002911DA0120FEF7FEF810B0BDE8F04D0C
:10221000FFF7C1BF0220FEF7F6F8FFF7B1FF10B0DD
:1022200081F00041BDE8F08D6FF03504362201F0F9
:1022300072F904EB2152C1F31308B049A2F2FF3343
:10224000414401F4801282F07F6103EB225281F05D
:102250004051009241EA08010022A94B00F0E8FD3C
:10226000044608F10200A74EC0F313000D467E4459
:10227000032867D2D6E90023204600F03FFC1ED198
:102280000098002802BFD6E9000110B0BDE8F08D2B
:1022900000F070FC07460C469B4A9C4B00F0BEFCCD
:1022A00006460D469A4A9B4B3846214600F0B6FC3E
:1022B00010B032462B46BDE8F04D00F00BBA4FF09F
:1022C0005532954B2046294600F0A8FC0022934B3E
:1022D00000F0A2FD06460F4622462B461046194640
:1022E00000F09CFC32463B4600F098FC0646009805
:1022F0000F46F0B100F03EFC80468A46824A834B8E
:1023000000F08CFC32463B4600F086FD22462B4610
:1023100000F08EFD05460C467D4A7E4B40465146F8
:1023200000F07CFC10B02A462346BDE8F04D00F0DA
:102330007FBD0B4610B0324620462946BDE8F04D21
:1023400000F076BD00224FF08043204600F0C2F935
:1023500002460B462046294600F078FA06460F460C
:10236000009800F007FCCDE9040132463B461046D8
:10237000394600F053FC0C9069480C9A4044019097
:1023800009910B46104600F049FC8246024665481A
:102390008B46C8F151080B4608F5D728032178442D
:1023A000FFF799FE52465B4600F038FC0A905E4803
:1023B0000D9152465B4604217844FFF78CFE099B41
:1023C0000C9A00F02BFC844601980D9B40EA08080B
:1023D00060460A9A00F07EF983460891B8F1000F32
:1023E0004EDD4FF0FF322046294601F094F8224698
:1023F0002B4600F013FC804600988A4660B3DDE966
:102400000401414A414B00F009FC099100905A46F1
:1024100040465146089B00F05DF932463B4600F0CD
:10242000FDFB099B009A00F055F94246534600F027
:10243000F3FC22462B4600F0FBFC04460D46DDE98A
:102440000401334A334B00F0E9FB10B022462B461F
:10245000BDE8F04D00F0ECBC5A464046089B00F049
:1024600039F932463B4600F0D9FB4246534600F06C
:10247000D3FC10B022462B46BDE8F04D00F0CCBC9A
:10248000009840B3DDE904011F4A204B00F0C6FB71
:1024900080468A465A4620462946089B00F0C8FCDA
:1024A00032463B4600F0BAFB4246534600F0C0FCC1
:1024B00022462B4600F0BCFC04460D46DDE9040133
:1024C000134A144B00F0AAFB10B022462B46BDE87D
:1024D000F04D00F0ADBC0B465A462046294600F0B0
:1024E000A7FC32463B4600F099FB10B022462B4633
:1024F000BDE8F04D00F090BC0000F07F645F090083
:102500000000F03F06140000763C7935EF39EA3DD3
:102510000000E0FE422EE63F5555D53F0000E03F6B
:1025200086EBF9FF06120000041200002DE9F041CD
:10253000044630480025814205DA21F000428242FB
:1025400001D805D124B12046BDE8F041FFF720BEF7
:10255000B1F5801F1BDA52EA040008D000290FDA17
:102560000120FDF750FFBDE8F041FFF714BE022047
:10257000FDF749FFFFF704FE81F00041BDE8F0815F
:102580006FF035053622204600F0C5FF044605EB06
:102590002150A0F2FF32D00F40F2FF331B1A0D463C
:1025A00063F31F55104400F0E5FA06460F4629462E
:1025B0002046FFF70DFE104A104B00F02FFB04469B
:1025C0000D460F4A0F4B3046394600F027FB224696
:1025D0002B4600F07FF805460C460B4A0B4B304665
:1025E000394600F01BFB2A462346BDE8F04100F0C7
:1025F00071B800000000F07F0EE526157BCBDB3FB5
:10260000362BF111F3FE593D00609F501344D33F28
:1026100010B54FF44070FFF789FA4FF4E130FEF740
:1026200081FEFEF7BFFEFFF77DF81420FEF7DCFE0B
:102630000348FDF725FEFFF7F5FB002010BD000065
:102640008036000810B500290AD00878002807D085
:1026500005487844FEF746FA002801D0002010BD56
:102660000248784410BD0000F6100000EE10000093
:1026700021F00042A2F16052B2F5801F01F0004348
:1026800028BFD2F17F6C0BD95FEA001C43EAC2027B
:1026900042EB507018BF704728BF20F00100704710
:1026A000B2F5801FBCBF184670474FEA410C1CF5BD
:1026B000001F02D2084600F04EBE70B500F058FB75
:1026C00000000089FFF7F6BF4FF00040A0F5800042
:1026D0007047000010B591EA030F48BF83F0004334
:1026E00000F1AE83841A71EB030C05D2121943EB8F
:1026F0000C03001B61EB0C01DFF824E14FEA1154DD
:10270000A4EB135C1EEA430F18BF9EEA445F73D02C
:1027100023EA0E03DCF1200E21EA045143F4801376
:1027200032D322FA0CFE10EB0E0023FA0CFE41EB22
:102730000E01CCF1200E03FA0EFE10EB0E0051F14B
:102740000001B1F5801FCCF1200E32D201EB045113
:1027500012FA0EF2BDE8104058BF7047401C38BF57
:102760005FEA420218BF7047002814BF20F0010042
:1027700041F100014FEA410313F5001F38BF7047D4
:10278000A1F1C04100F042BB012A43EB0302ACF1CE
:10279000200CDCF11F0E32BF4FF0000E23FA0CF3B9
:1027A00010EB030041EB0451B4EB115FD0D0A1EB6F
:1027B000045101F5801149085FEA300001EB045132
:1027C0000ED350F1000038BF12FA0EFE08D1BDE85A
:1027D0001040C9E7401C38BF5FEA4202CAD1C3E7D4
:1027E000BDE810404FEA410313F5001F38BF7047A2
:1027F000A1F1C04100F00ABB9EEA445F08D011EA93
:102800005E0FBDE8104004BF01F00041002070479A
:10281000BDE8104070B500F0ABFA00BF64FBBE3EEF
:102820000000E0FF02494FF0000000F042BE00BF90
:102830000000F87F491058BFC1F140415B1058BFFC
:10284000C3F140438B42EFF3008070472DE9C04154
:1028500030B4DFF8A0C23CEA111418BF3CEA1314EC
:1028600000F0EC8081EA03051CEA111444EAD574F7
:1028700018BF1CEA131500F0C780A4EB05044FF045
:10288000004545EAC12145EAC32341EA505143EAE4
:10289000525304F17F74994204F500344FEAC0208A
:1028A0004FEAC22208BF904200F09C804FEA1365B5
:1028B0000FF24016765D4FEA134506FB05F7C7F1A8
:1028C000807706FB07F74FEAD737A7FB0368764206
:1028D000C8F58038A7FB06CE38BFA8F1010807FB72
:1028E00008E64FF0000EA6FB028CE6FB03CEDCF1FF
:1028F000000CCEF1004E38BFAEF1010EA6FB0C5815
:102900004FF000074FF00005E6FB0E87A1FB08C65D
:10291000A0FB07CE16EB0E0645F10005E1FB0765AF
:1029200015F1E04E7EBFA4F580345FEA46066D41A6
:1029300016F1800745F100054FEA17274FEA0666B2
:1029400047EA0567A6F1DE46B6F1805F4FEA152536
:102950001FD9384624F0010C05EBC471BCF1FE6FA1
:1029600001EB0C1102D8F0BCBDE8008124425CBF31
:1029700001F5801E9EEAC47F02D4F0BCBDE8008150
:10298000244238D4F0BCA1F1C041BDE8004100F0C0
:102990003DBA4FEAD22242EA43524FEAD323A7FB81
:1029A00002864FEAD02040EA415007FB03661EEA48
:1029B0000E0F4FEAD12105FB026658BFA6EB005669
:1029C000B6EB00564FEA520E4EEAC37E18EB0E0EDF
:1029D00056EB530EBDD518EB02085E417F1C55F136
:1029E0000005B6E74FF480154FF000074FF00006E2
:1029F0004FF00008ADE7F0BC4FF0000001F1C0411E
:102A000001F00041BDE8008111EA0C1F0CEA13152A
:102A100000D00CE013EA0C1F00F025804FF00000FE
:102A2000F0BC81EA030101F00041BDE80081F0BC87
:102A3000BDE8004181EA030100F0E8B9F0BCBDE85F
:102A4000004170B500F094F9097EFC3E00F007B833
:102A500081EA03014FF0000001F00041704781EA74
:102A6000030100F0D3B9F0BCBDE800414FF0000015
:102A700021497047FFFDFBF9F7F5F4F2F0EEEDEBBD
:102A8000E9E8E6E4E3E1E0DEDDDBDAD8D7D5D4D36C
:102A9000D1D0CFCDCCCBCAC8C7C6C5C4C2C1C0BFB8
:102AA000BEBDBCBBBAB9B8B7B6B5B4B3B2B1B0AFBE
:102AB000AEADACABAAA9A8A8A7A6A5A4A3A3A2A1A2
:102AC000A09F9F9E9D9C9C9B9A999998979796955D
:102AD00095949393929191908F8F8E8E8D8C8C8BF9
:102AE0008B8A898988888787868585848483838281
:102AF000828181800000FF070000F87F51EA030C0B
:102B000017D41CF5801F58BFBCF5801F00F106804C
:102B1000994218BF704708BF9042704707D711F518
:102B2000801F58BF13F5801F19D4994270478942FE
:102B300070471CF5801F08D5BCF5801FF7D58B4268
:102B400018BF704708BF824270474FF4001C1CEB4F
:102B5000410F38BF1CEB430F01D28B42704770B559
:102B600000F006F9922449004FF000514FF08053D5
:102B7000FFF760BE10F0004248BF4042B0FA80F359
:102B800010FA03F10AD0C3F11D0303F580634FEA85
:102B9000415002EB035202EBD12170474FF000008D
:102BA0007047000051EA030C17D41CF5801F58BF72
:102BB000BCF5801F00F10680994218BF704708BF1E
:102BC0009042704707D711F5801F58BF13F5801F3B
:102BD00019D499427047894270471CF5801F08D567
:102BE000BCF5801FF7D58B4218BF704708BF8242E3
:102BF00070474FF4001C1CEB410F38BF1CEB430F18
:102C000001D28B42704770B500F0B2F892244900AF
:102C10004FF000514FF08053FFF70CBEDFF848C172
:102C200070B51CEA111E1EBF1CEA13159EEA0C0F9C
:102C300095EA0C0F00F06F8081EA030423EA4C133D
:102C40004EEAD47E21EA4C1141F4801143F4801302
:102C5000AE44A1FB024CA0FB0365AEF17F7E3619AA
:102C600055EB0C05A1FB034C4CF10003A0FB021C2F
:102C700016EB0C06654153F10003094218BF46F0FC
:102C8000010613F4007F0BD14FEA03314FEA053000
:102C9000340341EA155140EA16506FF003020AE08E
:102CA0004FEAC3214FEAC520F40241EA555140EAF8
:102CB00056506FF0020202EB2E4201EB025585EAFC
:102CC000CE710AD05FEA440C18BF24F0004450F1E2
:102CD000000041F1000120EAD47040F2FE7C624520
:102CE00000D270BDA84214BF4FF080444FF0404462
:102CF000002E08BF0024BEF1806FA8BFA1F1C04123
:102D0000BDE8704080F282804FF0000001F1C041C8
:102D100001F0004170479EEA0C0F0CEA131518BF32
:102D200095EA0C0F06D04FF0000081EA030E0EF07A
:102D3000004170BD00F01CF88900013E00F007B8AA
:102D400000F009B84FEA430C5FEA5C5C08D081EA06
:102D5000030100F05BB84FEA410C5FEA5C5CF6D11E
:102D60004FF00000014970470000FF070000F87FA6
:102D70000EF1020E2EF0030E5EF8046B364205D4FF
:102D8000012A43EB030515F5001F12D8012841EB7A
:102D9000010C1CF5001F0CD80ED14FEAD17C15F5A3
:102DA000001F0CEB4C0C0CF1020C08BF4CEBD37C5D
:102DB00004E04FF0080C01E04FEAD37C0CEB4C052B
:102DC00026FA05F606F00706B6F1040C06D20EEB5D
:102DD000860CBDE870404CF0010C6047DFE80CF059
:102DE000090B02024FF000414FF00000A1F5002155
:102DF00070BD19461046012851EB010418BFD4F5E7
:102E0000001484BF002001F0004170BD0808A0F547
:102E100000114FEA3101704791EA030F10B581F0BC
:102E200000413FF55FAC83F0004300F009B80000BB
:102E300010B591EA030F48BF83F000433FF552AC51
:102E4000841A71EB030C07D212198CF0004C43EB7F
:102E50000C03001B61EB0C01DFF8A4E14FEA1154F5
:102E6000A4EB135C1EEA430F18BF9EEA445F00F018
:102E7000B08023EA6E03524221EA0451C3EB6E0391
:102E800038BF5B1EDCF1200E25D322FA0CFE10EBBE
:102E90000E0043FA0CFE41EB0E01CCF1200E03FABA
:102EA0000EFE10EB0E0051F10001CCF1200E29D4E2
:102EB00012FA0EF201EB0451BDE8104058BF704702
:102EC000401C1CBFB2F1004F704700280CBF491CCA
:102ED00020F00100704712EB020E43EB030218BF13
:102EE0004FF0010E4EEA4202ACF1200CDCF11E0E56
:102EF00054D943FA0CFE10EB0E0051F1FF31CCF126
:102F00001E0ED5D50EF1010E12FA0EFE404141EB18
:102F1000010101EB445C5FEA5C5C10D910EBDE70F0
:102F200001EB045138BFBEF1004FBDE8104018BF9F
:102F3000704700280CBF491C20F00100704730D2B8
:102F40004FEAD42C11F5001124F400641BD0B1FA1F
:102F500081F20B3AA41AA41ED2F12003914030FA58
:102F600003F31943904001EBCC71002C01EB0451A9
:102F7000BDE81040A8BF704701F1C0414FF000000C
:102F800001F000417047B0FA80F310FA03F100D16C
:102F900010BDE41A173C4805C90AE4E701EB0451E7
:102FA00010BD491001EB0451BDE810404FEA30005C
:102FB00002E04FF0000170474A0008BF0042F8D01D
:102FC000B2F5001F28BF704701F000414FF000002C
:102FD00070479EEA445F07D011EA5E0FBDE81040DB
:102FE00004BF002100207047BDE8104070B5FFF716
:102FF000BFFE00BF40DFF63E83F000411046704741
:103000000000E0FF43004FEAD30C4FEA3C0C434082
:103010001FBF40070CF1605113F0FE4F70471CF0CA
:10302000006F03D100200CF0004170470CF000430A
:1030300043EA507010B540EACC0000F046F900BFFA
:10304000000000924FEA0001FFF7E0BE4FF00041A0
:103050004FF00000A1F500217047000090EA010F39
:1030600048BF81F0004100F1B481421A3CBF801A90
:1030700089184FEAD0524FF07F4C1CEA410FA2EB67
:10308000D15318BF9CEA026F00F03B804FF0004C18
:103090004CEA00204CEA012121FA03FC10EB0C0C55
:1030A0001ED202F1FF325FEA1C2040EBC25038BF53
:1030B00070471CF07F0F4FEA400C18BFBCF17F4FE8
:1030C00038BF7047C3F12003994008BF20F00100CA
:1030D000BCF17F4F38BF7047A0F1C04000F03BB952
:1030E0004FEA3C00000A40EBC25028BF1CF0FF0F23
:1030F0004FEA400CE6D018BFBCF17F4F38BF704795
:10310000EAE79CEA026F05D010EA5C0F08BF00F006
:103110000040704710B500F0D8F800BF64FBBE3E19
:10312000401058BFC0F14040491058BFC1F1404164
:103130008142EFF300807047B0FA80F310FA03F297
:10314000C3F19D030AD0D90501EB1220530638BF05
:10315000704700F1010008BF20F001007047000037
:1031600050EA010C00F113801CF5000F58BFBCF5AC
:10317000000F01D48842704707D710F5000F58BFE1
:1031800011F5000F15D488427047894270471CF52D
:10319000000F04D5BCF5000FF7D5814270474FF002
:1031A000807C1CEB400F38BF1CEB410F01D28142E9
:1031B000704710B500F089F8922449004FF0005094
:1031C0004FF08051FFF7ACBF4FF47F0C1CEAD012D8
:1031D0001EBF1CEAD11392EA0C0F93EA0C0F00F009
:1031E000478090EA010F48BF42F480724FF0004CD4
:1031F0004CEA00204CEA012102EB0302A0FB011380
:10320000A2F50002002918BF43F001035B0028BFAC
:103210004FEA330342EB22425FEA132C4CEBC250DD
:103220002EBFBCEB436FB2F57C0F70474FEA036CC7
:10323000BCF1004F08BF20F00100B2F57C0F38BF91
:1032400070470BD582F0FF0212F5803FC8BF704770
:1032500000F1C040D8BF00F00040704700F5000CFE
:103260005FEA4C0C48BF7047B0F1C04000F073B843
:1032700090EA010F0CEAD11348BF42F48072624514
:1032800038BF634504D280EA010000F00040704777
:1032900010B500F01AF800BF8900013E00F007B831
:1032A00000F009B85FEA410C5FEA1C6C08D080EAC4
:1032B000010000F050B85FEA400C5FEA1C6CF6D1E8
:1032C0004FF00040A0F5800070470EF1020E2EF086
:1032D000030E5EF8044B244204D44FEA4102B2F1DB
:1032E0007F4F11D84FEA4003B3F17F4F0CD80ED176
:1032F0004FEAD07CB2F17F4F0CEB4C0C0CF1020C7E
:1033000008BF4CEBD17C04E04FF0080C01E04FEA21
:10331000D17C0CEB4C0324FA03F404F00704B4F161
:10332000040C06D20EEB840CBDE810404CF0010CEE
:103330006047DFE80CF0070802024FF00040A0F5FC
:10334000800010BD0846420018BFD2F1807288BFCD
:1033500000F0004010BDFF2141EAD050C005704789
:1033600051EA000C00F113801CF5000F58BFBCF5AA
:10337000000F01D48142704707D711F5000F58BFE5
:1033800010F5000F15D481427047894270471CF533
:10339000000F04D5BCF5000FF7D5884270474FF0F9
:1033A000807C1CEB410F38BF1CEB400F01D28842E0
:1033B000704780EA010081EA000180EA0100FFF71E
:1033C000F8BE000090EA010F48BF81F000413FF5D0
:1033D0004CAE421A04D882F00042A0EB0200114425
:1033E0004FEAD0524FF07F4C1CEA410FA2EBD15371
:1033F00018BF9CEA026F4AD04FF0004C4CEA002004
:103400004CEA012121FA03FCB0EB0C0C0FD412F0B2
:10341000FE0F36D05FEA4C001DD5001240EBC250C3
:1034200038BF70471CF03F0F18BF70470BE0A2F188
:1034300001025FEA1C2040EBC25038BF70471CF00D
:103440007F0F18BF7047C3F12003994014BF401E7F
:1034500020F00100704780084FEA122308BF704730
:10346000B0FA80FCA2EB0C02CCF1280C60FA0CF054
:1034700093EA122F04BF00EBC25070474FEAC370AB
:103480007047130A5FEADC1008BF7047F6E79CEA52
:10349000026F04D010EA5C0F08BF0020704710B51F
:1034A000FFF713FF40DFF63E81F000407047FDF765
:1034B00087B80CF00F03092B08BF082000F05980D3
:1034C0000A2B0BD0082B18BF704708BF1CF0400F09
:1034D0000AD04FF000004FF0000170471CF0400F81
:1034E00018BF4FF0004070471CF0100F08D020F0BC
:1034F000704300F07F4242EAD3014FEA43707047C5
:1035000000F0604021F07F4242EA000201F07F407B
:1035100040EA727070474FF0FF0C4CF4E06C1CEA0C
:1035200011531CBF9CEA030C9445C2BFDA4201EB65
:1035300002517047002B0DD0BCF1000F0FD0002AB4
:1035400001F00041A4BF41F0E04141F07F614FF044
:103550000000704701F000414FF00000704750EA52
:1035600001334FF09B0C18BF4CF0806C7FF45AA9CC
:1035700070471CF4801F11D01CF4E02F03D06FEAB9
:10358000CC31490070474FF04050EFF3008222F0F9
:10359000704242EA000282F3008870474FF0000058
:1035A000704700000000000004FA97999999D93FEC
:1035B000AF788E1DC571CC3F9FC678D0099AC33FA6
:1035C000935555555555E53F599322942449D23F7B
:1035D000DE03CB966446C73F44523EDF12F1C23F42
:1035E00002400000000000A00000000005400000B4
:1035F000000000C8000000000C4000000000409CDB
:1036000000000000194000000020BCBE00000000C7
:1036100034400000BFC91B8E00000004B54000000C
:10362000504BCFD06607E2CF010000006C41000094
:103630003E8251AADFEEA73401000000D94200000B
:10364000DCB5A0E23A301F97FFFFFFFFB445000052
:10365000FD25A0C8E9A3C14FFFFFFFFFFF3F00000A
:103660000000008000000000FF3F0000000000801C
:10367000000000000000000000000000000000004A
:103680002020202020202020200920CEC2CAAAB637
:10369000C8B4ABB8D0C6F720D1DDCABE200D0A2D04
:1036A0002D2D2D2D2D2D2D2D2D2D2D2D2D2D2D2D4A
:1036B0002D2D2D2D2D2D2D2D2D2D2D2D2D2D2D2D3A
:1036C0002D2D2D2D2D2D2D2D2D2D2D2D2D2D2D2D2A
:1036D0002D2D2D0D0A0909B4AEBFDAB4F2D3A1D64F
:1036E000DCCEA7B5C4CEC2CAAAB6C8D0C5CFA20D7B
:1036F0000A2D2D2D2D2D2D2D2D2D2D2D2D2D2D2D1D
:103700002D2D2D2D2D2D2D2D2D2D2D2D2D2D2D2DE9
:103710002D2D2D2D2D2D2D2D2D2D2D2D2D2D2D2DD9
:103720002D2D2D2D2D0A0D006437000800000020DE
:103730002C000000C4010008903700082C00002075
:103740006C0A0000E00100081C00000043000000BB
:10375000F8FFFFFF0C0000000E0000000F0000004B
:103760002E0000000000000000000000007A030AA4
:103770000000000000000000010203040607080921
:103780000000000001020304010203040607080907
:040000050800018965
:00000001FF
